:100000000C9468040C94AF040C94AF040C94AF04EB
:100010000C94AF040C94AF040C94AF040C94AF0494
:100020000C94AF040C94AF040C94E60A0C94C50B2A
:100030000C94AF040C94AF040C94AF040C94AF0474
:100040000C94AF040C94AF040C94AF040C94AF0464
:100050000C94AF040C94F3190C94AF040C94AF04FB
:100060000C94AF040C94AF040C94AF040C94AF0444
:100070000C94AF040C94AF040C94AF040C94AF0434
:100080000C94AF040C94AF040C94AF040C94AF0424
:100090000C94AF040C94AF040C94AF040C94AF0414
:1000A0000C94AF040C94AF040C94AF04590D7B0D69
:1000B000790E7B0D790EC00DE40D790E390E4D0EC3
:1000C0003F113F116C116C11921392139213921302
:1000D000D2119213CB12CB126813921392137E1388
:1000E000F1A104851B8100F014001A00080015001E
:1000F000170000001C0018000C0012001300040080
:100100001600070009000A0000000B000D000E0099
:100110000F0033001D001B00060019000500E00061
:100120001100100036003700380029002B00E300D2
:10013000E1002C00E2002A00C0002D00340028005D
:100140001E021F0252002F02300200004B0024004A
:100150002500260025022002500051004F002102F8
:1001600000004E002100220023002E022F0030004C
:10017000260227022402E00035001E001F00200096
:100180003100C1004902E300E1002A00E2002C0036
:10019000C000370027002E0049004A0052004D00E1
:1001A0004B000000520040004100420043004C0060
:1001B000500051004F004E00000051003D003E0035
:1001C0003F0044000000800039000000C300E00050
:1001D00000003A003B003C00450000008100E300C5
:1001E000E1002A00E2002C00C2004600470048005F
:1001F0006E6F7420737570706F727465642E0A0070
:100200000A0A4A756D7020746F20626F6F746C6F8C
:10021000616465722E2E2E20000A00253031366270
:10022000003A200025303258000A722F6320303106
:1002300032333435363738394142434445460A0073
:100240000A002530325800626F756E6365213A20CE
:10025000004B6579626F6172642073746172742EF1
:100260000A0055534220636F6E6669677572656454
:100270002E0A000E034100740072006500750073C1
:10028000000000180374006500630068006E006FD2
:10029000006D0061006E0063007900000004030936
:1002A0000409025B00030100A032090400000103FD
:1002B000010100092111010001223F00070581030E
:1002C00008000109040100020300000009211101D6
:1002D0000001222000070582032000010705030317
:1002E000200001090402000103000000092111019E
:1002F00000012239000705840310000112011001DA
:1003000000000008C0167C04240001020001050161
:100310000906A101050719E029E71500250195083F
:1003200075018102050819012905950575019102DC
:10033000950175039101050719002977150025011D
:10034000957875018102C00631FF0974A101097514
:10035000150025FF9520750881020976150025FFF7
:10036000952075089102C005010906A1010507192C
:10037000E029E715002501950875018102950175B1
:100380000881010508190129059505750191029556
:1003900001750391010507190029FF150025FF9537
:1003A0000675088100C00A002530325820006B65B0
:1003B00079626F6172645F7265706F72743A200067
:1003C0000A0025303258006B6579626F6172645F94
:1003D0007365745F6C65643A200064656C5F6B657F
:1003E000795F6269743A2063616E27742064656C7A
:1003F0003A20253032580A006164645F6B65795F8A
:100400006269743A2063616E2774206164643A20E3
:10041000253032580A003F000A5175697420436F35
:100420006E736F6C65204D6F64650A00433E20005B
:100430000A0025750020746F200025750073776908
:100440007463685F64656661756C745F6C6179651F
:10045000723A20004553432F713A09717569740A45
:10046000000A0A2D2D2D2D2D20436F6E736F6C65A4
:100470002048656C70202D2D2D2D2D0A00506175A2
:10048000733A096A756D7020746F20626F6F746CB7
:100490006F616465720A00436170733A094C6F635F
:1004A0006B204B6579626F617264284368696C6484
:1004B0002050726F6F66290A00505363723A0970B8
:1004C0006F77657220646F776E2F72656D6F7465DC
:1004D0002077616B652D75700A00342F46343A0918
:1004E00073776974636820746F204C617965723426
:1004F000200A00332F46333A097377697463682002
:10050000746F204C6179657233200A00322F4632B5
:100510003A0973776974636820746F204C61796558
:100520007232200A00312F46313A097377697463B9
:100530006820746F204C6179657231200A00302F79
:100540004631303A0973776974636820746F204CC0
:100550006179657230200A006E3A09746F67676CC2
:1005600065204E4B524F0A00653A097072696E74ED
:1005700020656570726F6D20636F6E6669670A0033
:10058000733A097072696E74207374617475730ABA
:1005900000743A097072696E742074696D65722016
:1005A000636F756E740A00763A097072696E742012
:1005B0006465766963652076657273696F6E20265F
:1005C00020696E666F0A006D3A09746F67676C6523
:1005D000206D6F7573652064656275670A006B3AFC
:1005E00009746F67676C65206B6579626F6172640F
:1005F0002064656275670A00783A09746F67676CF2
:1006000065206D61747269782064656275670A009F
:10061000643A09746F67676C65206465627567206A
:10062000656E61626C650A00633A09656E74657295
:1006300020636F6E736F6C65206D6F64650A000ACE
:100640000A2D2D2D2D2D20436F6D6D616E64204878
:10065000656C70202D2D2D2D2D0A003F004E4B5224
:100660004F3A2064697361626C65640A004E4B52B4
:100670004F3A20656E61626C65640A00686F73743E
:100680005F6B6579626F6172645F6C656473282962
:100690003A2025580A000A0A2D2D2D2D2D2053749D
:1006A00061747573202D2D2D2D2D0A0074696D65D3
:1006B000725F636F756E743A202530346C580A008F
:1006C0004743433A20342E392E32204156522D4C86
:1006D0004942433A20312E382E3073766E204156EF
:1006E000525F415243483A20617672350A004F50BA
:1006F00054494F4E533A204C55464120434F4E5398
:100700004F4C4520434F4D4D414E44204E4B524F90
:1007100020343039360A004255494C443A20613879
:1007200030333933332D6469727479202832313A89
:1007300032343A3334204175672031312032303140
:1007400036290A005649443A203078313643302859
:10075000746563686E6F6D616E63792920504944DA
:100760003A203078303437432841747265757329E4
:10077000205645523A2033360A00444553433A2026
:10078000544D4B206B6579626F61726420666972AB
:100790006D7761726520666F722041747265757342
:1007A0000A000A0A2D2D2D2D2D2056657273696FB2
:1007B0006E202D2D2D2D2D0A000A44454255473A15
:1007C000206D6F7573652064697361626C65642E5A
:1007D0000A000A44454255473A206D6F75736520FB
:1007E000656E61626C65642E0A000A444542554795
:1007F0003A206B6579626F6172642064697361622B
:100800006C65642E0A000A44454255473A206B65E0
:1008100079626F61726420656E61626C65642E0A34
:10082000000A44454255473A206D61747269782048
:1008300064697361626C65642E0A000A444542551E
:10084000473A206D617472697820656E61626C65EB
:10085000642E0A000A44454255473A20656E61629B
:100860006C65642E0A000A44454255473A20646983
:100870007361626C65642E0A006E6F74207375700C
:10088000706F727465642E0A000A0A4A756D7020D2
:10089000746F20626F6F746C6F616465722E2E2EA0
:1008A0002000433E20000A456E74657220436F6E3F
:1008B000736F6C65204D6F64650A00556E6C6F63D5
:1008C0006B65642E0A004C6F636B65642E0A000032
:1008D00011241FBECFEFDAE0DEBFCDBF04B603FEAA
:1008E00027C08091C3019091C401A091C501B0912E
:1008F000C6018730904BA740B04BD1F41092C30192
:100900001092C4011092C5011092C60114BE84B7A2
:10091000877F84BF0FB6F894A895809160008861A6
:1009200080936000109260000FBEE0E0F8E309954C
:1009300011E0A0E0B1E0E0EDF9E302C005900D9216
:10094000A632B107D9F721E0A6E2B1E001C01D92BD
:10095000A33CB207E1F70E9407090C94E61C0C9433
:100960000000FF93EF93E091B001F091B101309757
:1009700009F00995EF91FF910895FC018591803070
:1009800011F0EFDFFBCF0895FF27E0E230E247FFF1
:100990000CC0419597FF09C0EDE260957095809578
:1009A0009095611D711D811D911D27FF02C021952C
:1009B00030E350E2AA27660F771F881F991FAA1FEE
:1009C000A41710F0A41B63955A95A9F7AA3008F054
:1009D000A95FA05DAF93F395611571058105910540
:1009E00041F7ED3211F4EF93F395F21718F43F93BA
:1009F000F395FBCF8F91B5DFFA95E1F70895E99173
:100A0000F9918591803021F0853219F0AADFF9CF74
:100A1000089520E0E89455915532C1F3503311F414
:100A2000689455915A3348F4505390F3220F022E94
:100A3000220F220F200D250FF4CF0EF4219589915E
:100A40009991533619F3533729F1533559F1BC01B4
:100A500088279927E8945C3621F4899199916894C4
:100A60005591543639F446EF7EF077FF0DC08FEF85
:100A70009FEF0AC055374AE039F0583540E121F080
:100A8000523642E009F00895FF93EF937DDFEF9136
:100A9000FF91B7CFFF93EF93FC0181918030B9F3C1
:100AA00060DFFBCFFF93EF9368DFF1CFDF93CF934E
:100AB000CDB7DEB72596A3DFCF91DF910895611101
:100AC00002C00C947F0508959BE0799FF0011124EA
:100AD0009CE2899FE00DF11D1124E60FF11DEE0F40
:100AE000FF1FE851FF4F859194910895E82FF0E0A2
:100AF000EE0FFF1FE05AF0408591949108950E94F7
:100B0000A71380E092E00E94BD042FEF84E39CE0F5
:100B1000215080409040E1F700C0000087E797E750
:100B200090930108809300080E941D1A80EF91E0C5
:100B30000C94BD048AB1807F8AB98BB1807F8BB958
:100B400008950E949A0580B38D7880BB81B3826737
:100B500081BB84B1817084B985B18E6F85B9AEE2F5
:100B6000B1E011961C921E92E6E2F1E01182108231
:100B700013961C921E9212971382128215961C9243
:100B80001E9214971582148217961C921E92169725
:100B9000178216820895BF92CF92DF92EF92FF9252
:100BA0000F931F93CF93DF93C6E2D1E0D12CCC24D7
:100BB000C39445E0B42E52E4E52E52E0F52E82E0D7
:100BC000D81661F093E0D91661F081E0D81619F0DB
:100BD000509A589808C0519A599805C0529A5A98F4
:100BE00002C0539A5B9887EC90E00197F1F700C040
:100BF00000008FB182958695869583708C25082F8D
:100C0000017010E07D9903C022E030E002C020E0D6
:100C100030E0C901802B912B7C9903C024E030E0A7
:100C200002C020E030E0AC01422B532B23B1022E56
:100C3000000C330B20953095C9018827990F881F28
:100C4000992733E0880F991F3A95E1F7842B952B6C
:100C50001E9903C040E150E002C040E050E0842B08
:100C6000952B1D9903C040E250E002C040E050E0E7
:100C7000842B952B1C9903C020E430E002C020E0B7
:100C800030E0822B932B1B9903C060E870E002C018
:100C900060E070E0862B972B1A9903C040E051E08A
:100CA00002C040E050E0842B952B199903C020E04E
:100CB00032E002C020E030E0822B932B799903C010
:100CC00020E034E002C020E030E0822B932B28812A
:100CD00039812817390741F1998388838091080168
:100CE000882301F18091B50180FF04C087E492E080
:100CF0000E94BD048091B50180FF0CC08091080165
:100D00001F928F93FF92EF920E9456050F900F90C3
:100D10000F900F908091B50180FF04C080E492E0B5
:100D20000E94BD04B09208010E949A05D3942296B5
:100D300094E0D91244CF80910801882361F1815059
:100D400080930801882339F08FE99FE00197F1F73C
:100D500000C0000020C0809126019091270190934F
:100D60002F0180932E018091280190912901909369
:100D700031018093300180912A0190912B01909351
:100D800033018093320180912C0190912D01909339
:100D900035018093340181E0DF91CF911F910F9154
:100DA000FF90EF90DF90CF90BF900895E82FF0E094
:100DB000EE0FFF1FE25DFE4F808191810895CF927B
:100DC000DF92EF92FF920F931F93CF93DF9389E20D
:100DD00092E00E94BD048EE2E82E81E0F82EC0E091
:100DE000D0E094E2C92E92E0D92E0BE112E0DF931D
:100DF000CF93DF92CF920E94560581E292E00E944B
:100E0000BD04F701819191917F010E94B91A9F93CE
:100E10008F931F930F930E94560589E192E00E94E1
:100E2000BD0421968DB79EB708960FB6F8949EBF65
:100E30000FBE8DBFC430D105D1F6DF91CF911F9188
:100E40000F91FF90EF90DF90CF90089581FF02C047
:100E5000549A01C054985C98089580914701089570
:100E600008959091BA01943009F059C09091E90029
:100E70009F703091EC00232F217030FD20E8922BE1
:100E800022E02093E9002091EB0020FF29C020916F
:100E9000EE0027FF25C020913601222321F020916A
:100EA000E80025FF1DC0109236014091E4005091EA
:100EB000E50026E007C06091E4007091E500461768
:100EC000570791F43091E80035FD19C03091BA010F
:100ED000332329F1353019F13091EB0035FFEBCF99
:100EE0009F709093E9001BC0215021F481E0809312
:100EF0003601F6CF4091E4005091E500E3CF8093B6
:100F0000F1008091E80085FD05C08091E8008E77B2
:100F10008093E8009F709093E90080E008958FEF40
:100F20000895CF93DF9300D01F92CDB7DEB7209105
:100F3000BA012430D9F423E029839B838A8381E09A
:100F40008093E90080E0815021F09091E80095FFC6
:100F5000FACF40E050E063E070E0CE0101960E94DD
:100F6000090C8091E8008E778093E8000F900F9035
:100F70000F90DF91CF910895CF93DF9300D01F9210
:100F8000CDB7DEB72091BA012430D9F422E029830D
:100F90009B838A8381E08093E90080E0815021F087
:100FA0009091E80095FFFACF40E050E063E070E0F8
:100FB000CE0101960E94090C8091E8008E77809303
:100FC000E8000F900F900F90DF91CF910895CF938D
:100FD000DF932091BA01243051F53091490131114C
:100FE00001C021E02093E90020E0215021F0309160
:100FF000E80035FFFACFEC018091490140E050E074
:10100000882319F060E170E002C068E070E0CE0172
:101010000E94090C8091E8008E778093E80080E1BF
:10102000FE01A7E3B1E001900D928A95E1F7DF910F
:10103000CF91089508950895089508950C94511A34
:101040008091BA01843041F58091E9008F70209140
:10105000EC00922F917020FD90E8892B92E0909304
:10106000E9009091EB0090FF14C09091EE0097FF83
:1010700010C09091E80095FF03C01092F100F9CFE5
:101080009091E80090FF05C09091E8009E779093C2
:10109000E8008F708093E900089542E061EC81E000
:1010A0000E94C00946E261EC82E00E94C00942E26F
:1010B00060EC83E00E94C00942E161EC84E00C94A2
:1010C000C0098091BC01833009F453C030F48130F1
:1010D00071F0823009F482C008958A3009F46EC03C
:1010E0008B3009F457C0893009F090C020C080913E
:1010F000BB01813A09F08AC08091E800877F809324
:10110000E8008091BF019091C001892B21F460E13A
:1011100087E391E003C060E080E090E070E00E942F
:10112000540C8091E8008B778093E80008958091BB
:10113000BB01813209F06AC08091BF019091C0016A
:10114000892B09F063C08091E800877F8093E800D5
:101150008091E80082FD05C08091BA018111F8CF2D
:1011600055C08091F100809347018091E8008B7712
:1011700049C08091BB01813A09F048C08091E800E4
:10118000877F8093E8008091E80080FFFCCF80910A
:10119000130133C08091BB018132C1F58091E80019
:1011A000877F8093E8000E94F5099091BD0181E05E
:1011B000911101C080E08093130108958091BB01DB
:1011C000813221F58091E800877F8093E8000E94BA
:1011D000F5098091BE018093480108958091BB017B
:1011E000813AA1F48091E800877F8093E8008091A4
:1011F000E80080FFFCCF809148018093F10080914E
:10120000E8008E778093E8000C94F509089584B780
:10121000877F84BF0FB6F894A8958091600088619D
:1012200080936000109260000FBE90E080E80FB6DF
:10123000F89480936100909361000FBE0E94460A6B
:101240000E94CD0A8091E20084608093E20081E3F5
:1012500097E00E94181A78948091BA018430E1F7DF
:1012600082E692E00E94BD040E941D0F89E091E099
:101270000E94920E81E592E00E94BD048091BA0125
:10128000853069F40E943F1A8091B8018823B1F338
:101290000E94401A882391F30E94AA09EFCF0E946E
:1012A000490FECCF292F332723303105C9F064F4DF
:1012B0002130310581F02230310509F043C08BE542
:1012C00090E021EA32E042C021323105F1F02232D1
:1012D000310541F137C082E190E02CEF32E036C0B9
:1012E00099278130910541F08230910541F0892B99
:1012F00049F5EDE9F2E005C0E3E8F2E002C0E3E71A
:10130000F2E0849190E09F0121C06330D8F4E62F91
:10131000F0E0EE0FFF1FE05EFE4F2081318189E09B
:1013200090E014C0633070F470E0FB01EE0FFF1F1B
:10133000E65EFE4F20813181FB01E95EFE4F808138
:1013400090E004C080E090E020E030E0FA013183DA
:101350002083089580E189BD82E189BD09B400FE42
:10136000FDCF8091D8008F7D8093D8008091E000E0
:1013700082608093E0008091E00081FDFCCF0895C1
:10138000982F973058F59093E900981739F070919D
:10139000EC002091ED005091F00003C0242F762F37
:1013A00050E021FF19C03091EB003E7F3093EB00FD
:1013B0003091ED003D7F3093ED003091EB003160D6
:1013C0003093EB007093EC002093ED005093F0000D
:1013D0002091EE0027FF07C09F5FD3CF8F708093CF
:1013E000E90081E0089580E008958091BB0187FFC6
:1013F00011C08091E80082FD05C08091BA01811181
:10140000F8CF11C08091E8008B770BC08091BA01B2
:10141000882349F08091E80080FFF8CF8091E800B0
:101420008E778093E80008952091E4003091E500E4
:1014300095E64091EC00842F817040FF22C080919E
:10144000E80080FD1CC08091BA01882391F08530AE
:1014500091F08091EB0085FD10C04091E400509127
:10146000E5004217530729F39A01915011F784E0E0
:10147000089582E0089583E0089581E0089580E072
:1014800008954091E80042FFDECF08950E94D90AF6
:101490000E94E10AE0EEF0E0808181608083E8ED67
:1014A000F0E080818F77808319BCA7EDB0E08C914C
:1014B0008E7F8C9380818F7E80831092B9010895F6
:1014C000CF93DF9300D0CDB7DEB70E94D90A0E9438
:1014D000E10A8091D8008F778093D8008091D8005E
:1014E00080688093D8008091D8008F7D8093D80049
:1014F00019BC1092BA011092B6011092B801109264
:10150000B701AE014F5F5F4F60E080E091E00E9465
:101510005209892B31F0E981FA813796E491E09301
:1015200014018091E0008B7F8093E0008091D800CF
:1015300081608093D8008091140190E028E030E031
:1015400040E02817390720F44F5F220F331FF9CFEF
:101550004295407F426060E080E00E94C009809137
:10156000E1008E7F8093E1008091E20081608093B2
:10157000E2008091E20088608093E2008091E000C8
:101580008E7F8093E0008091D80080618093D800A6
:101590000F900F90DF91CF910895E7EDF0E08081FB
:1015A0008160808384E082BF81E08093B9010C94E4
:1015B000600AE8EDF0E080818E7F80831092E20087
:1015C00008951092DA001092E10008951F920F9290
:1015D0000FB60F9211242F933F934F935F936F9306
:1015E0007F938F939F93AF93BF93EF93FF938091DC
:1015F000E10082FF0BC08091E20082FF07C0809172
:10160000E1008B7F8093E1000E9420088091DA0046
:1016100080FF1FC08091D80080FF1BC08091DA003E
:101620008E7F8093DA008091D90080FF0DC080E129
:1016300089BD82E189BD09B400FEFDCF81E08093C0
:10164000BA010E941A0805C019BC1092BA010E9482
:101650001B088091E10080FF19C08091E20080FFAB
:1016600015C08091E2008E7F8093E2008091E200BD
:1016700080618093E2008091D80080628093D800DE
:1016800019BC85E08093BA010E941D088091E10099
:1016900084FF2EC08091E20084FF2AC080E189BDD2
:1016A00082E189BD09B400FEFDCF8091D8008F7D15
:1016B0008093D8008091E1008F7E8093E10080913B
:1016C000E2008F7E8093E2008091E200816080934F
:1016D000E2008091B601811106C08091E30087FD90
:1016E00002C081E001C084E08093BA010E941E081C
:1016F0008091E10083FF38C08091E20083FF34C015
:101700008091E100877F8093E10082E08093BA01BD
:101710001092B6018091E1008E7F8093E10080916C
:10172000E2008E7F8093E2008091E20080618093EE
:10173000E2008091140190E028E030E040E02817BA
:10174000390720F44F5F220F331FF9CF4295407FB6
:10175000426060E080E00E94C0098091F0008860F3
:101760008093F0000E941C08FF91EF91BF91AF9110
:101770009F918F917F916F915F914F913F912F91A9
:101780000F900FBE0F901F9018951F920F920FB6DB
:101790000F9211242F933F934F935F936F937F93F7
:1017A0008F939F93AF93BF93CF93DF93EF93FF9369
:1017B000C091E900CF708091EC00D82FD17080FDEE
:1017C000D0E81092E9008091F000877F8093F000CC
:1017D00078940E942F0D1092E9008091F0008860AB
:1017E0008093F000CD2BCF70C093E900FF91EF9173
:1017F000DF91CF91BF91AF919F918F917F916F9129
:101800005F914F913F912F910F900FBE0F901F90BE
:101810001895CF92DF92EF92FF920F931F93CF9381
:10182000DF93EC018B016A010E94140A811133C01D
:10183000C114D10439F0F60180819181081B190B84
:10184000C80FD91FE12CF12C0115110519F1809158
:10185000E80085FD16C08091E8008E778093E8004F
:10186000C114D10449F0F60180819181E80EF91E7E
:10187000F182E08285E00FC00E94140A882321F3E0
:101880000AC089918093F10001501109FFEFEF1A0E
:10189000FF0ADACF80E0DF91CF911F910F91FF9087
:1018A000EF90DF90CF900895CF93DF932091C10107
:1018B0003091C2012617370748F06115710539F4D8
:1018C0002091E8002E772093E80001C0B90140E0A4
:1018D00061157105F1F12091BA01222309F44AC082
:1018E000253009F449C02091E80023FD41C0209132
:1018F000E80022FD37C02091E80020FFE9CF4091A9
:10190000F3002091F20030E0342BFC01281B390B4E
:10191000D901AE0FBF1FCF014091140161157105B0
:1019200059F0C42FD0E0AC17BD0730F481918093FB
:10193000F10061507109ECCF242F30E041E0A21793
:10194000B30709F040E02091E8002E772093E800EB
:10195000BFCF4111C0CF06C08091BA01882351F09A
:10196000853051F08091E80082FFF6CF80E005C01D
:1019700081E003C082E001C083E0DF91CF91089550
:101980002091C1013091C2012617370748F0611537
:10199000710539F42091E8002E772093E80001C00A
:1019A000B901382F492F20E06115710509F442C0B3
:1019B0008091BA01882309F44EC0853009F44DC0E6
:1019C0008091E80083FD45C08091E80082FD3BC026
:1019D0008091E80080FFE8CF5091F3002091F20061
:1019E000822F90E0952BE32FF42F8E1B9F0BAF01DE
:1019F000480F591F209114016115710561F0A22F44
:101A0000B0E04A175B0738F424912093F100319637
:101A100061507109ECCF822F90E021E048175907FF
:101A200009F020E08091E8008E778093E8003E2F57
:101A30004F2FBACF2111BCCF06C08091BA018823A5
:101A400051F0853051F08091E80082FFF6CF80E0C0
:101A5000089581E0089582E0089583E008950F934A
:101A60001F93CF93DF93CDB7DEB7AA970FB6F89445
:101A7000DEBF0FBECDBFEBEBF1E088E08E0F9091A3
:101A8000F10091938E13FBCF0E9461088091E800D2
:101A900083FF2FC18091BB019091BC01492F50E081
:101AA0004A30510508F025C1FA01EA5AFF4F0C945B
:101AB000E01C803881F0823809F01BC18091BF01A1
:101AC0008F708093E9008091EB0085FB882780F977
:101AD0001092E90006C08091B7019091B801911170
:101AE00082609091E800977F9093E8008093F100E6
:101AF0001092F100CAC0282F2D7F09F0FAC0882368
:101B000019F0823061F0F5C08091BD01813009F09B
:101B1000F0C0933009F080E08093B8012BC0809131
:101B2000BD01811127C08091BF018F7009F4E1C010
:101B30008093E9002091EB0020FF1CC0933021F43A
:101B40008091EB00806214C09091EB0090619093C3
:101B5000EB0021E030E0A90102C0440F551F8A9537
:101B6000E2F74093EA001092EA008091EB0088606F
:101B70008093EB001092E9008091E800877F88C095
:101B80008111B7C01091BD011F770FB7F8948091F4
:101B9000E800877F8093E8000E94F5098091E800C3
:101BA00080FFFCCF8091E3008078812B8093E3005D
:101BB00080688093E300111102C082E001C083E0DD
:101BC0008093BA010FBF95C08058823008F091C051
:101BD0008091BD019091BE018C3D53E0950779F550
:101BE00083E08A838AE289834FB7F894DE011396F3
:101BF00020E03EE051E2E32FF0E050935700E49103
:101C000020FF03C0E295EF703F5FEF708E2F90E0F2
:101C1000EA3010F0C79601C0C0968D939D932F5F58
:101C2000243149F74FBF8091E800877F8093E80017
:101C30006AE270E0CE0101960E94540C14C0AE011D
:101C40004F5F5F4F6091BF010E945209BC01892B19
:101C500009F44FC09091E800977F9093E800898144
:101C60009A810E94C00C8091E8008B778093E800F5
:101C700040C0803809F03DC08091E800877F8093A4
:101C8000E8008091B6018093F1008091E8008E77A2
:101C90008093E8000E94F5092CC081112AC0AE0192
:101CA0004F5F5F4F60E080E091E00E945209892B16
:101CB00001F1E981FA817196E4919091BD01E917F2
:101CC000C0F08091E800877F8093E8009093B60190
:101CD0000E94F5098091B601811106C08091E30050
:101CE00087FD02C081E001C084E08093BA010E94B8
:101CF0004D088091E80083FF0AC08091EB0080626C
:101D00008093EB008091E800877F8093E800AA969B
:101D10000FB6F894DEBF0FBECDBFDF91CF911F91FC
:101D20000F91089590934F0180934E0108958091F3
:101D30004E0190914F010895E0914E01F0914F01B5
:101D4000309721F00190F081E02D099480E0089512
:101D5000EF92FF920F931F93CF93DF93E0914E0189
:101D6000F0914F013097B1F18C010280F381E02DA9
:101D700009958091B50182FF2DC080FF04C08EEAD5
:101D800093E00E94BD04E80110E188EAE82E83E0B8
:101D9000F82E8091B50180FF0BC088811F928F9330
:101DA000FF92EF920E9456050F900F900F900F90A8
:101DB000115021961111EDCF8091B50180FF0AC01D
:101DC00086EA93E0DF91CF911F910F91FF90EF9002
:101DD0000C94BD04DF91CF911F910F91FF90EF9074
:101DE000089520914C0130914D018217930771F0B5
:101DF00090934D0180934C01E0914E01F0914F0181
:101E0000309721F00680F781E02D09940895209104
:101E10004A0130914B018217930771F090934B0167
:101E200080934A01E0914E01F0914F01309721F0EB
:101E30000084F185E02D099408950E94DE190C9428
:101E4000A105CF93C82F8091B50182FF1EC080FFEE
:101E500004C087EC93E00E94BD048091B50180FF2F
:101E60000CC01F92CF9382EC93E09F938F930E94BC
:101E700056050F900F900F900F908091B50180FF45
:101E800004C080EC93E00E94BD048C2FCF910C9491
:101E900026074F925F927F928F929F92AF92BF924E
:101EA000CF92DF92EF92FF920F931F93CF93DF9326
:101EB000CDB7DEB72A970FB6F894DEBF0FBECDBF01
:101EC0000E94CB0591E5C92E91E0D92E00E010E0EB
:101ED000AA24A394B12C702E802F0E94D6064C0108
:101EE000F601419051906F01482659264114510442
:101EF000B1F40F5F1F4F0430110569F78FEF89832D
:101F00008A831B820E94E7198160782F9D838C83CE
:101F100049815A816B818D810E9400103AC0809165
:101F2000B50181FD0E94DF0620E030E07501022E40
:101F300002C0EE0CFF1C0A94E2F7C7018421952130
:101F4000892B09F12E837F828E209F2091E08928A2
:101F500009F490E098870E94E7198160782F9A87AA
:101F600089874E815F8168858A850E940010000FF5
:101F7000111FF801EF5AFE4F80819181E826F92662
:101F8000F182E08206C02F5F3F4F2B30310571F6A2
:101F9000B0CF109150010E949C0E1817D9F00E94EA
:101FA0009C0E809350012A960FB6F894DEBF0FBEA8
:101FB000CDBFDF91CF911F910F91FF90EF90DF90F8
:101FC000CF90BF90AF909F908F907F905F904F90F9
:101FD0000C94210F2A960FB6F894DEBF0FBECDBF2A
:101FE000DF91CF911F910F91FF90EF90DF90CF90F5
:101FF000BF90AF909F908F907F905F904F9008958B
:10200000CF93DF93CDB7DEB72B970FB6F894DEBF33
:102010000FBECDBF4F83588769877A878B87DE01D4
:10202000119686E0FD0111928A95E9F785E0FE019F
:10203000379601900D928A95E1F749815A816B811B
:102040007C818D819E810E943B162B960FB6F89461
:10205000DEBF0FBECDBFDF91CF910895CF93882310
:1020600009F499C0C82F8CEF8C0F813A48F48C2F5B
:102070000E94171B81118FC08C2F0E94D5180CC095
:1020800080E28C0F883058F4C77081E001C0880F5F
:10209000CA95EAF70E947019CF910C94A7198BE5A5
:1020A0008C0F833078F4C53A29F0C63A31F083E8D2
:1020B00090E005C081E890E002C082E890E0CF9116
:1020C0000C94F10E88E58C0F833108F064C0C83A97
:1020D00039F1C93A41F1CA3A49F1CB3A51F1CC3A16
:1020E00059F1CD3A61F1C03B69F1CE3A71F1CF3A85
:1020F00079F1C13B81F1C23B89F1C33B91F1C43B12
:1021000099F1C53BA1F1C63BA9F1C73BB1F1C83B71
:10211000B9F1C93BC1F1CA3BC9F180E090E038C0D8
:1021200082EE90E035C089EE90E032C08AEE90E019
:102130002FC085EB90E02CC086EB90E029C087EBA8
:1021400090E026C08CEC90E023C08DEC90E020C0A5
:1021500083E891E01DC08AE891E01AC082E991E02D
:1021600017C084E991E014C081E292E011C083E2DB
:1021700092E00EC084E292E00BC085E292E008C0DB
:1021800086E292E005C087E292E002C08AE292E035
:10219000CF910C94070FCF910895882329F19CEFDC
:1021A000980F913A18F40E9421190DC090E2980FEF
:1021B000983058F4877091E001C0990F8A95EAF73A
:1021C000892F0E9476190C94A7199BE5980F9330DC
:1021D00020F480E090E00C94F10E885A833120F4D2
:1021E00080E090E00C94070F0895882321F00E946E
:1021F00070190C94A7190895882321F00E9476196C
:102200000C94A7190895CF92DF92EF92FF920F934B
:102210001F93CF93DF9300D000D000D0CDB7DEB7AF
:1022200025E0FC01DE01119601900D922A95E1F75F
:10223000FC0130812181F280058102950F7043817C
:102240005481452B09F46EC22F3F19F43F3F09F426
:1022500069C26C0139832A8389819A810E9494180A
:10226000182F9E830E9493180E945A172E81E22FE6
:10227000E295EF70F0E0E05AFF4F0C94E01C822FE3
:10228000807F922F9F70092F882311F00295007F85
:10229000FF2049F0002309F4F6C1802F0E94801925
:1022A0000E94A719F0C1812F0E94CD10002309F4CC
:1022B00039C2802F0E94861926960FB6F894DEBF89
:1022C0000FBECDBFDF91CF911F910F91FF90EF9087
:1022D000DF90CF900C94A719822F807F922F9F7050
:1022E000803211F4892F03C0892F8295807F1123BA
:1022F00019F0113009F12AC0FF20A1F0002381F16B
:10230000013071F526960FB6F894DEBF0FBECDBF33
:10231000DF91CF911F910F91FF90EF90DF90CF90C1
:102320000C949019002319F0013009F4FBC18E833D
:102330000E9493198E8126C0FF2021F0063008F0FC
:10234000F1C10EC0053008F0EDC11CC0FF20C1F086
:10235000002331F0F601958190FF95C19F70958320
:1023600026960FB6F894DEBF0FBECDBFDF91CF919A
:102370001F910F91FF90EF90DF90CF900C94F5108C
:10238000011195C126960FB6F894DEBF0FBECDBFE2
:10239000DF91CF911F910F91FF90EF90DF90CF9041
:1023A0000C94FC10822F837009F077C0F110BAC131
:1023B000812F829586958770880F880F912F9F7047
:1023C000C92ED12CE12CF12C082E04C0CC0CDD1C24
:1023D000EE1CFF1C0A94D2F714FF12C04FE050E02D
:1023E00060E070E004C0440F551F661F771F8A9598
:1023F000D2F7CB01BA01609570958095909503C096
:1024000060E070E0CB01269526952370422F50E0C6
:1024100042305105D1F04330510559F16C297D29E5
:102420008E299F294130510541F126960FB6F89427
:10243000DEBF0FBECDBFDF91CF911F910F91FF90F7
:10244000EF90DF90CF900C9481176C297D298E2915
:102450009F2926960FB6F894DEBF0FBECDBFDF9141
:10246000CF911F910F91FF90EF90DF90CF900C9440
:102470009D170E948117C701B60126960FB6F894E2
:10248000DEBF0FBECDBFDF91CF911F910F91FF90A7
:10249000EF90DF90CF900C946517FF2019F0822FFA
:1024A000817001C08695882309F43CC1812F8295F3
:1024B00086958770880F880F912F9F70C92ED12C19
:1024C000E12CF12C082E04C0CC0CDD1CEE1CFF1CF2
:1024D0000A94D2F714FF12C04FE050E060E070E0C1
:1024E00004C0440F551F661F771F8A95D2F7CB0192
:1024F000BA01609570958095909503C060E070E09A
:10250000CB01269526952370422F50E0423051058D
:10251000D1F04330510559F16C297D298E299F292D
:102520004130510541F126960FB6F894DEBF0FBE3B
:10253000CDBFDF91CF911F910F91FF90EF90DF9072
:10254000CF900C945B186C297D298E299F292696A3
:102550000FB6F894DEBF0FBECDBFDF91CF911F91B4
:102560000F91FF90EF90DF90CF900C9477180E941E
:102570005B18C701B60126960FB6F894DEBF0FBEF2
:10258000CDBFDF91CF911F910F91FF90EF90DF9022
:10259000CF900C943F18113F29F118F4103F39F0F7
:1025A0006DC0123F99F1133F09F444C067C0FF208A
:1025B000A9F0053008F0B6C0822F8F7126960FB6AD
:1025C000F894DEBF0FBECDBFDF91CF911F910F9169
:1025D000FF90EF90DF90CF900C941E18063008F01B
:1025E000A1C0EACFFF20A1F0822F8F7126960FB6EF
:1025F000F894DEBF0FBECDBFDF91CF911F910F9139
:10260000FF90EF90DF90CF900C94D817FF2061F3EC
:10261000822F8F7126960FB6F894DEBF0FBECDBF06
:10262000DF91CF911F910F91FF90EF90DF90CF90AE
:102630000C94F917FF2091F0822F8F7126960FB618
:10264000F894DEBF0FBECDBFDF91CF911F910F91E8
:10265000FF90EF90DF90CF900C94C31726960FB6A3
:10266000F894DEBF0FBECDBFDF91CF911F910F91C8
:10267000FF90EF90DF90CF900C94B917FF20A1F05E
:10268000002309F4B1CF812F26960FB6F894DEBF50
:102690000FBECDBFDF91CF911F910F91FF90EF90B3
:1026A000DF90CF900C942E10002309F4B1CF812F2E
:1026B00026960FB6F894DEBF0FBECDBFDF91CF9147
:1026C0001F910F91FF90EF90DF90CF900C94CD1061
:1026D000422F4F70612FC6010E94DB1926960FB65C
:1026E000F894DEBF0FBECDBFDF91CF911F910F9148
:1026F000FF90EF90DF90CF900C94DF16422F4F7039
:10270000612FC60126960FB6F894DEBF0FBECDBF6F
:10271000DF91CF911F910F91FF90EF90DF90CF90BD
:102720000C945F0526960FB6F894DEBF0FBECDBFA2
:10273000DF91CF911F910F91FF90EF90DF90CF909D
:1027400008950E948D190E9462190C94A7190E9485
:102750007D190C94A1130E949418292F22952F7093
:1027600030E02C3031054CF42A30310594F42250FD
:1027700031092230310538F40CC02C30310529F0F4
:102780002F30310511F080E0089593FB882780F900
:10279000089581E00895CF93DF9300D000D01F9279
:1027A000CDB7DEB70F900F900F900F900F90DF9185
:1027B000CF910895CF93DF9300D000D000D0CDB754
:1027C000DEB726960FB6F894DEBF0FBECDBFDF9101
:1027D000CF9108951F93CF93DF93C091590116E0D5
:1027E00080915A01C81799F0D0E01C9FF0011D9FFD
:1027F000F00D1124E55AFE4F4081518162817381B1
:10280000848195810E94DA132196C770E9CFDF9108
:10281000CF911F91089540918B0150918C0160914F
:102820008D0170918E0180918F01909190010C9497
:10283000DA138091900182958F7009F054C08091D5
:102840008D01882309F44FC080915901A0915A014C
:1028500060918B0170918C0140918E0150918F019C
:10286000B6E08A1709F43FC090E041155105C1F167
:102870007F3F11F46F3FA1F1B89FF001B99FF00DB8
:102880001124E55AFE4F218172132AC02081621360
:1028900027C02281211124C02381348124173507C8
:1028A00010F421503109241B350B283C3105C0F4AC
:1028B000209190012F7020612093900126E0289FA5
:1028C000F001299FF00D1124E05AFE4F80818F7096
:1028D000806180838BE891E00E9403110C94EA13DD
:1028E00001968770BECF0895CF92DF92EF92FF924C
:1028F0000F931F93CF93DF93CDB7DEB762970FB6D9
:10290000F894DEBF0FBECDBF8C0185E0F801DE017B
:102910001D9601900D928A95E1F7D8014C91119680
:102920005C91119712966C9112971396CD90DC9052
:10293000149730918B0170918C0180918E01909150
:102940008F01009709F46BC17F3F19F43F3F09F4F1
:1029500066C1E0908D01EE2009F4C0C02091900185
:10296000C816D90628F0F601E81BF90BCF0104C000
:10297000809590958C0D9D1DFF24F394883C9105C6
:1029800078F0F12C207F09F0C6C07C2DD98AC88A46
:1029900089890E94CB138BE891E00E940311B1C09A
:1029A000822F807F09F046C0751314C0341312C003
:1029B000611110C02F702061209390010E940B14B0
:1029C0008BE891E00E94031180919001D801159647
:1029D0008C932EC0CD2819F15F3F11F44F3FF9F0D1
:1029E000F62E61111CC08091590120915A0136E0E8
:1029F000821709F45AC090E0389FF001399FF00D1A
:102A00001124E55AFE4F7181571306C07081471398
:102A100003C07281711103C001968770E9CFF62E51
:102A2000662309F418C18091900181608093900120
:102A3000F12C11C1751308C0341306C0611104C014
:102A400080919001D801C3C04D875E878D859E859A
:102A50006A8B0E94AB136A898823E1F16623D1F166
:102A600020919001822F82958F7090E0029774F0F0
:102A700080918B0190918C0198878F831986DB86DA
:102A8000CA862C87CE0107960E94031186E0F801C2
:102A9000ABE8B1E001900D928A95E1F70E9419141C
:102AA0000E940B14FF24F394D6C04D875E878D855A
:102AB0009E850E949418292F22952F7030E0223095
:102AC00031050CF0BCC09F7009F0B6C0805E883044
:102AD00008F4C1C0C8010E940311E4CFC816D9068A
:102AE00008F453C0F601E81BF90BCF01883C9105AF
:102AF00008F450C0F12C7C2DD98AC88A89890E949B
:102B0000CB13EBE8F1E086E0DF011D928A95E9F74F
:102B10000E940B14A0C0751314C0341312C06111AD
:102B200010C080919001F8018583C8010E940311B3
:102B300086E0EBE8F1E0DF011D928A95E9F7FE2CD3
:102B40008AC04D875E878D859E856A8B0E94AB13F8
:102B50006A89882309F4BECF662309F4BBCF20918C
:102B60009001822F82958F7090E002970CF48ECFA7
:102B700080918B0190918C019A8389831B82DD82E5
:102B8000CC822E83CE0101967FCF809590958C0DBF
:102B90009D1DACCFF62E662309F49CCF75132EC075
:102BA00034132CC02091900120FD1FC0822F8295EC
:102BB0008F70D9F0D80115962C9315978F3049F066
:102BC0008F5F982F9295907F822F8F70892B15960B
:102BD0008C93C8010E94031186E0F801ABE8B1E0D4
:102BE00001900D928A95E1F793CF86E0F801ABE86A
:102BF000B1E001900D928A95E1F72DC04D875E8777
:102C00008D859E850E94AB13811140CF80919001EC
:102C1000816080939001C8010E9403111CC066234B
:102C200009F458CF4D875E878D859E850E94AB1332
:102C3000882309F44FCF2ACF811148CF0CC024300C
:102C400031050CF047CF9F7009F440CFF801958112
:102C5000907F09F03BCF8F2D62960FB6F894DEBFC0
:102C60000FBECDBFDF91CF911F910F91FF90EF90DD
:102C7000DF90CF9008951F93CF93DF93CDB7DEB74A
:102C80002C970FB6F894DEBF0FBECDBF4F83588789
:102C900069877A878B879C87CE0107960E94741478
:102CA000882369F08F8198852A853B85232BF1F154
:102CB0009F3F09F063C08F3F09F060C037C086E0D6
:102CC000FE013796DE01119601900D928A95E1F78B
:102CD0006F817885EA85FB85309741F17F3F11F45C
:102CE0006F3F21F120915A0130E0C90101968770B0
:102CF00099274091590150E08417950709F447C07E
:102D000069837A83FD83EC8396E0929FD001939F41
:102D1000B00D1124A55ABE4FFE01319601900D92BF
:102D20009A95E1F780935A010E94EA1316E0809188
:102D3000590190915A018917C1F1189FC0011124BE
:102D4000855A9E4F0E947414882379F1E0915901AD
:102D50001E9FF0011124E55AFE4F4081518162818E
:102D60007381848195810E94DA138091590190E0EA
:102D700001968770992780935901D9CF4F81588543
:102D800069857A858B859C850E94DA13CFCF0E9456
:102D9000A71310925A0110925901EBE8F1E086E076
:102DA000DF011D928A95E9F7C1CF2C960FB6F894F2
:102DB000DEBF0FBECDBFDF91CF911F910895EF927F
:102DC000FF920F931F93CF93DF938C01892B09F40C
:102DD0006AC0F12CEE24E394E8012196F801849175
:102DE000843740F4843008F04FC0813081F0823065
:102DF00019F159C0853709F442C098F19CE7980F42
:102E0000903708F050C08F770E94CD103FC00E5F02
:102E10001F4FFE01C49180E28C0F883048F4C770C8
:102E20008E2D01C0880FCA95EAF70E9480192FC025
:102E30008C2F0E942E102BC00E5F1F4FFE01C491DD
:102E400080E28C0F883048F4C7708E2D01C0880F47
:102E5000CA95EAF70E9486191AC08C2F0E94CD10DD
:102E600016C00E5F1F4FFE01C491CC2381F08FE985
:102E70009FE00197F1F700C00000C150F6CF0E5F50
:102E80001F4FFE01F49003C00E942E108E018F2D63
:102E9000882309F4A1CFEFE9FFE03197F1F700C0F3
:102EA00000008150F5CFDF91CF911F910F91FF90DE
:102EB000EF90089508956093950170939601809323
:102EC0009701909398010C94A1130F931F93009175
:102ED0009501109196012091970130919801DC01A4
:102EE000CB01802B912BA22BB32B80939501909338
:102EF0009601A0939701B09398011F910F910C94A4
:102F0000A1130F931F9300919501109196012091A9
:102F1000970130919801DC01CB0180239123A223FA
:102F2000B3238093950190939601A0939701B0935A
:102F300098011F910F910C94A1130F931F9300916F
:102F40009501109196012091970130919801DC0133
:102F5000CB0180279127A227B327809395019093D7
:102F60009601A0939701B09398011F910F910C9433
:102F7000A11310929101109292011092930110925C
:102F800094010C94A11341E050E060E070E004C0B3
:102F9000440F551F661F771F8A95D2F74093910102
:102FA0005093920160939301709394010C94A11338
:102FB00041E050E060E070E004C0440F551F661F20
:102FC000771F8A95D2F78091910190919201A091FB
:102FD0009301B0919401482B592B6A2B7B2B409382
:102FE00091015093920160939301709394010C941A
:102FF000A11341E050E060E070E004C0440F551FB1
:10300000661F771F8A95D2F7409550956095709509
:103010008091910190919201A0919301B0919401BE
:10302000482359236A237B234093910150939201B3
:1030300060939301709394010C94A11341E050E0CC
:1030400060E070E004C0440F551F661F771F8A952B
:10305000D2F78091910190919201A0919301B0914A
:103060009401482759276A277B2740939101509361
:10307000920160939301709394010C94A1130F93A8
:103080001F93009191011091920120919301309131
:103090009401DC01CB01802B912BA22BB32B8093CD
:1030A000910190939201A0939301B09394011F9189
:1030B0000F910C94A1130F931F9300919101109104
:1030C00092012091930130919401DC01CB01802386
:1030D0009123A223B3238093910190939201A09313
:1030E0009301B09394011F910F910C94A1130F932E
:1030F0001F930091910110919201209193013091C1
:103100009401DC01CB0180279127A227B32780936C
:10311000910190939201A0939301B09394011F9118
:103120000F910C94A1130895CF92DF92EF92FF922A
:103130000F931F93CF93DF938C01C0909501D09094
:103140009601E0909701F090980140919101509183
:1031500092016091930170919401C42AD52AE62AC4
:10316000F72ACFE1D0E0D701C6010C2E04C0B695F6
:10317000A795979587950A94D2F780FF07C0B80165
:103180008C2F0E94CD198130910531F4219758F789
:10319000B80180E00E94CD19DF91CF911F910F916E
:1031A000FF90EF90DF90CF9008959091490199237F
:1031B00059F1982F9695969596959F30A0F4E091A9
:1031C0001501F0911601E90FF11D877021E030E043
:1031D000A90102C0440F551F8A95E2F7CA019181E7
:1031E000892B818308959091B50190FF29C01F928A
:1031F0008F9388EF93E09F938F930E9456050F90D3
:103200000F900F900F9008952091150130911601A5
:10321000F90132969FEF40E05191581789F09F3F96
:1032200019F4511101C0942F4F5F4E30A9F79F3F01
:1032300039F0F901E90FF11D97FDFA9582830895A0
:10324000089590914901992361F1982F969596954B
:1032500096959F30A8F4E0911501F0911601E90FC1
:10326000F11D877021E030E0A90102C0440F551F15
:103270008A95E2F7CA018095918189238183089517
:103280009091B50190FF1DC01F928F938AED93E03E
:103290009F938F930E9456050F900F900F900F9061
:1032A00008952091150130911601F9013296205FA1
:1032B0003F4F9081981301C010823196E217F307B7
:1032C000C1F7089581E090E0E0911501F0911601B9
:1032D000E80FF91F1082019680319105A9F7089532
:1032E0009091AB01892B8093AB01089580959091CB
:1032F000AB0189238093AB0108951092AB0108952F
:103300009091AA01892B8093AA01089580959091AC
:10331000AA0189238093AA0108951092AA01089511
:103320008093990108951092990108958091150153
:1033300090911601FC0131969C01205F3F4F80E087
:10334000919191118F5FE217F307D1F70895E09102
:103350001501F09116018091AB018083E091150178
:10336000F091160190818091AA01892B8083809130
:103370009901882361F0E0911501F0911601908187
:10338000892B80830E949619811110929901809156
:103390001501909116010C94A80E0E9464059C01E1
:1033A000805C9109809720F4822F0E947605089511
:1033B000C9019F70089580E090E0089582E084BD87
:1033C00093E095BD9AEF97BD80936E0008952FB757
:1033D000F8948091AC019091AD01A091AE01B091B3
:1033E000AF012FBF08951F920F920FB60F921124B5
:1033F0008F939F93AF93BF938091AC019091AD0158
:10340000A091AE01B091AF010196A11DB11D8093B5
:10341000AC019093AD01A093AE01B093AF01BF9109
:10342000AF919F918F910F900FBE0F901F901895A5
:103430009093B1018093B00108950E94460AF894D8
:103440002FEF87EA91E6215080409040E1F700C0DD
:10345000000087E090EBDC018093C3019093C401EE
:10346000A093C501B093C6019CE088E10FB6F89423
:10347000A895809360000FBE90936000FFCF0895E1
:10348000CF930E94CB05C0E08C2F0E94D606892BDB
:1034900029F4CF5FC430C1F780E001C081E0CF9153
:1034A00008950C94A713CF92DF92EF92FF926C01D4
:1034B000EE24FF24C114D104E104F10421F0C7017A
:1034C000B60120E101C020E0C72ED82EE92EFF244E
:1034D000C114D104E104F10419F0285FC701B60159
:1034E0006B017C0154E0F694E794D794C7945A9505
:1034F000D1F7C114D104E104F10419F02C5FC70124
:10350000B6016B017C0142E0F694E794D794C7942E
:103510004A95D1F7C114D104E104F10419F02E5FEA
:10352000C701B601DC01CB01B695A79597958795A4
:10353000892B8A2B8B2B09F02F5F822FFF90EF9026
:10354000DF90CF9008958295982F9C7C392F3695E7
:103550003695282F237344E0249FC0011124932F14
:10356000982B292F2A7A2695892F8575880F822BEB
:1035700008951F93CF93DF931F92CDB7DEB7998342
:103580000E94A31A182F9981892F0E94A31A212F14
:1035900030E0322F2227A901482BCA010F90DF917A
:1035A000CF911F910895CF93C82F8DE394E00E948F
:1035B000BD04609195017091960180919701909161
:1035C00098010E94531A1F928F938AE394E09F936D
:1035D0008F930E94560585E394E00E94BD041F92DC
:1035E000CF9382E394E09F938F930E94560580E3EC
:1035F00094E00E94BD0481E090E0A0E0B0E0BC0156
:10360000CD0104C0660F771F881F991FCA95D2F796
:103610000E945B178DB79EB708960FB6F8949EBFB1
:103620000FBE8DBFCF910C94A71380E00895CF9368
:10363000C82F8091B401882321F0813009F499C109
:10364000BAC1E0911501F09116018081823209F032
:10365000B4C18C2F0E94151B811188C1CB3109F494
:10366000FAC008F051C0C03109F41BC140F5C730A1
:1036700009F4E1C0E8F4C63009F072C18091B501E7
:10368000817F8E7F8093B50181E694E00E94BD0426
:1036900084E594E00E94BD0486EA98E00E94BD049F
:1036A00082EA98E00E94BD0481E08093B4015EC18B
:1036B000CB3009F475C0CE3009F4E0C051C1C63139
:1036C00009F422C120F4C13109F431C149C1C73123
:1036D00009F401C1C93109F043C182EA97E00E94AF
:1036E000BD048AE797E00E94BD0484E497E00E944D
:1036F000BD0487E197E00E94BD048EEE96E00E9433
:10370000BD0480EC96E022C1C53309F422C168F4FF
:10371000C73209F41EC128F4CE3108F421C183EE6A
:103720001BC1C93209F415C11BC1C63440F4CA33E8
:1037300008F011C1C833A1F1C933C1F011C1C834B7
:1037400009F00EC10E94A71389E898E00E94BD0409
:103750002FEF83ED90E3215080409040E1F700C0CF
:1037600000000E941D1A89E798E0F0C00E94970EA1
:10377000892B69F00E94970E9093B3018093B20158
:1037800080E090E00E94920E86EC98E0DFC080918D
:10379000B2019091B3010E94920E8BEB98E0D6C0DB
:1037A0008FE396E00E94BD0488E296E00E94BD048B
:1037B00080E196E00E94BD0488EF95E00E94BD0480
:1037C0008EED95E00E94BD0487EC95E00E94BD045B
:1037D00087EA95E00E94BD0481E995E00E94BD045E
:1037E00080E895E00E94BD0488E695E00E94BD0453
:1037F00088E595E00E94BD048EE395E00E94BD043B
:1038000085E295E00E94BD048CE095E00E94BD0435
:1038100083EF94E00E94BD048AED94E00E94BD0411
:1038200089EB94E00E94BD0487E994E00E94BD0406
:103830008DE794E08BC08091B50180FF09C086E6DA
:1038400098E00E94BD048091B501817F8E7F3DC0CC
:1038500084E598E035C08091B50181FB222720F9ED
:1038600091E0922790FB81F98093B501992319F09B
:103870008BE398E025C081E298E068C08091B501B3
:1038800082FB222720F991E0922790FB82F9809316
:10389000B501992319F086E098E012C08AEE97E00E
:1038A00055C08091B50183FB222720F991E0922732
:1038B00090FB83F98093B501992351F082ED97E055
:1038C0000E94BD048091B50181608093B5014EC016
:1038D00089EB97E03BC08091AC019091AD01A09144
:1038E000AE01B091AF01BF93AF939F938F938CEADA
:1038F00096E09F938F930E9456050F900F900F9024
:103900000F900F900F9032C086E996E00E94BD04A0
:103910000E949C0E1F928F938CE796E09F938F934B
:103920000E9456050F900F900F900F901FC00E949D
:10393000A7139091490181E0892780934901882349
:1039400019F08DE696E002C08DE596E00E94BD0478
:103950000DC080E002C087EC8C0F0E94D31A06C015
:103960008BE596E00E94BD0480E001C081E081709B
:1039700025C0C43199F018F4CB3029F016C0C932F3
:1039800069F0C83391F481E694E00E94BD0484E5B7
:1039900094E00E94BD048CE294E009C088E194E0C8
:1039A0000E94BD041092B40104C086E194E00E941C
:1039B000BD0481E003C01092B40180E0CF9108956E
:1039C000EE0FFF1F0590F491E02D0994F894FFCFBE
:1039D0000000010003000200052D07E7073007BCC7
:1039E00007910701089A013F2039670347030E0337
:0639F000B302CC02EC0260
:00000001FF
