:100000000C9466040C94AD040C94AD040C94AD04F3
:100010000C94AD040C94AD040C94AD040C94AD049C
:100020000C94AD040C94AD040C94E40A0C94C30B32
:100030000C94AD040C94AD040C94AD040C94AD047C
:100040000C94AD040C94AD040C94AD040C94AD046C
:100050000C94AD040C94FE190C94AD040C94AD04F6
:100060000C94AD040C94AD040C94AD040C94AD044C
:100070000C94AD040C94AD040C94AD040C94AD043C
:100080000C94AD040C94AD040C94AD040C94AD042C
:100090000C94AD040C94AD040C94AD040C94AD041C
:1000A0000C94AD040C94AD040C94AD04590D7B0D6F
:1000B000800E7B0D800EC00DE40D800E390E4D0EAE
:1000C0004811481176117611A113A113A113A113A0
:1000D000DC11A113D112D1127513A113A1138C132A
:1000E000F1A104851B8100F014001A00080015001E
:1000F000170000001C0018000C0012001300040080
:100100001600070009000A0000000B000D000E0099
:100110000F0033001D001B00060019000500E00061
:100120001100100036003700380029002B00E300D2
:10013000E1002C00E2002A00C0002D00340028005D
:100140001E021F0252002F02300200004B0024004A
:100150002500260025022002500051004F002102F8
:1001600000004E002100220023002E022F0030004C
:10017000260227022402E00035001E001F00200096
:100180003100C1004902E300E1002A00E2002C0036
:10019000C000370027002E0049004A0052004D00E1
:1001A0004B000000520040004100420043004C0060
:1001B000500051004F004E00000051003D003E0035
:1001C0003F0044000000800039000000C300E00050
:1001D00000003A003B003C00450000008100E300C5
:1001E000E1002A00E2002C00C2004600470048005F
:1001F0006E6F7420737570706F727465642E0A0070
:100200000A0A4A756D7020746F20626F6F746C6F8C
:10021000616465722E2E2E20000A00253031366270
:10022000003A200025303258000A722F6320303106
:1002300032333435363738394142434445460A0073
:100240000A002530325800626F756E6365213A20CE
:10025000004B6579626F6172642073746172742EF1
:100260000A0055534220636F6E6669677572656454
:100270002E0A000E034100740072006500750073C1
:10028000000000180374006500630068006E006FD2
:10029000006D0061006E0063007900000004030936
:1002A0000409025B00030100A032090400000103FD
:1002B000010100092111010001223F00070581030E
:1002C00008000109040100020300000009211101D6
:1002D0000001222000070582032000010705030317
:1002E000200001090402000103000000092111019E
:1002F00000012239000705840310000112011001DA
:1003000000000008C0167C04240001020001050161
:100310000906A101050719E029E71500250195083F
:1003200075018102050819012905950575019102DC
:10033000950175039101050719002977150025011D
:10034000957875018102C00631FF0974A101097514
:10035000150025FF9520750881020976150025FFF7
:10036000952075089102C005010906A1010507192C
:10037000E029E715002501950875018102950175B1
:100380000881010508190129059505750191029556
:1003900001750391010507190029FF150025FF9537
:1003A0000675088100C00A002530325820006B65B0
:1003B00079626F6172645F7265706F72743A200067
:1003C0000A0025303258006B6579626F6172645F94
:1003D0007365745F6C65643A200064656C5F6B657F
:1003E000795F6269743A2063616E27742064656C7A
:1003F0003A20253032580A006164645F6B65795F8A
:100400006269743A2063616E2774206164643A20E3
:10041000253032580A003F000A5175697420436F35
:100420006E736F6C65204D6F64650A00433E20005B
:100430000A0025750020746F200025750073776908
:100440007463685F64656661756C745F6C6179651F
:10045000723A20004553432F713A09717569740A45
:10046000000A0A2D2D2D2D2D20436F6E736F6C65A4
:100470002048656C70202D2D2D2D2D0A00506175A2
:10048000733A096A756D7020746F20626F6F746CB7
:100490006F616465720A00436170733A094C6F635F
:1004A0006B204B6579626F617264284368696C6484
:1004B0002050726F6F66290A00505363723A0970B8
:1004C0006F77657220646F776E2F72656D6F7465DC
:1004D0002077616B652D75700A00342F46343A0918
:1004E00073776974636820746F204C617965723426
:1004F000200A00332F46333A097377697463682002
:10050000746F204C6179657233200A00322F4632B5
:100510003A0973776974636820746F204C61796558
:100520007232200A00312F46313A097377697463B9
:100530006820746F204C6179657231200A00302F79
:100540004631303A0973776974636820746F204CC0
:100550006179657230200A006E3A09746F67676CC2
:1005600065204E4B524F0A00653A097072696E74ED
:1005700020656570726F6D20636F6E6669670A0033
:10058000733A097072696E74207374617475730ABA
:1005900000743A097072696E742074696D65722016
:1005A000636F756E740A00763A097072696E742012
:1005B0006465766963652076657273696F6E20265F
:1005C00020696E666F0A006D3A09746F67676C6523
:1005D000206D6F7573652064656275670A006B3AFC
:1005E00009746F67676C65206B6579626F6172640F
:1005F0002064656275670A00783A09746F67676CF2
:1006000065206D61747269782064656275670A009F
:10061000643A09746F67676C65206465627567206A
:10062000656E61626C650A00633A09656E74657295
:1006300020636F6E736F6C65206D6F64650A000ACE
:100640000A2D2D2D2D2D20436F6D6D616E64204878
:10065000656C70202D2D2D2D2D0A003F004E4B5224
:100660004F3A2064697361626C65640A004E4B52B4
:100670004F3A20656E61626C65640A00686F73743E
:100680005F6B6579626F6172645F6C656473282962
:100690003A2025580A000A0A2D2D2D2D2D2053749D
:1006A00061747573202D2D2D2D2D0A0074696D65D3
:1006B000725F636F756E743A202530346C580A008F
:1006C0004743433A20352E332E30204156522D4C8D
:1006D0004942433A20322E302E30204156525F415B
:1006E0005243483A20617672350A004F5054494FC0
:1006F0004E533A204C55464120434F4E534F4C45A4
:1007000020434F4D4D414E44204E4B524F203430EC
:1007100039360A004255494C443A20393134373091
:1007200031612D6469727479202831373A31383A51
:100730003536204175672031342032303136290A70
:10074000005649443A203078313643302874656386
:10075000686E6F6D616E637929205049443A20308C
:1007600078303437432841747265757329205645B3
:10077000523A2033360A00444553433A20544D4BF5
:10078000206B6579626F617264206669726D776152
:10079000726520666F72204174726575730A000A73
:1007A0000A2D2D2D2D2D2056657273696F6E202D0B
:1007B0002D2D2D2D0A000A44454255473A206D6FD4
:1007C0007573652064697361626C65642E0A000A42
:1007D00044454255473A206D6F75736520656E61DB
:1007E000626C65642E0A000A44454255473A206B04
:1007F0006579626F6172642064697361626C6564BB
:100800002E0A000A44454255473A206B6579626FCB
:1008100061726420656E61626C65642E0A000A4430
:10082000454255473A206D61747269782064697356
:1008300061626C65642E0A000A44454255473A20BD
:100840006D617472697820656E61626C65642E0AF0
:10085000000A44454255473A20656E61626C656402
:100860002E0A000A44454255473A20646973616282
:100870006C65642E0A006E6F7420737570706F72F1
:100880007465642E0A000A0A4A756D7020746F2020
:10089000626F6F746C6F616465722E2E2E20004340
:1008A0003E20000A456E74657220436F6E736F6C54
:1008B00065204D6F64650A00556E6C6F636B6564EF
:1008C0002E0A004C6F636B65642E0A0011241FBE54
:1008D000CFEFDAE0DEBFCDBF04B603FE27C08091C4
:1008E000C3019091C401A091C501B091C6018730A8
:1008F000904BA740B04BD1F41092C3011092C401A9
:100900001092C5011092C60114BE84B7877F84BFC0
:100910000FB6F894A895809160008861809360007C
:10092000109260000FBEE0E0F8E3099511E0A0E04E
:10093000B1E0E0EEF9E302C005900D92A632B107F6
:10094000D9F721E0A6E2B1E001C01D92A33CB207B5
:10095000E1F70E9406090C94EE1C0C940000FF9332
:10096000EF93E091B001F091B101309709F0099552
:10097000EF91FF910895FC018591803011F0EFDF38
:10098000FBCF0895FF27E0E230E247FF0CC041951E
:1009900097FF09C0EDE26095709580959095611D77
:1009A000711D811D911D27FF02C0219530E350E28A
:1009B000AA27660F771F881F991FAA1FA41710F078
:1009C000A41B63955A95A9F7AA3008F0A95FA05D0A
:1009D000AF93F395611571058105910541F7ED32EE
:1009E00011F4EF93F395F21718F43F93F395FBCFBF
:1009F0008F91B5DFFA95E1F70895E991F991859125
:100A0000803021F0853219F0AADFF9CF089520E077
:100A1000E89455915532C1F3503311F468945591CF
:100A20005A3348F4505390F3220F022E220F220F14
:100A3000200D250FF4CF0EF421958991999153360D
:100A400019F3533729F1533559F1BC0188279927F8
:100A5000E8945C3621F489919991689455915436C3
:100A600039F446EF7EF077FF0DC08FEF9FEF0AC09D
:100A700055374AE039F0583540E121F0523642E02E
:100A800009F00895FF93EF937DDFEF91FF91B7CFCA
:100A9000FF93EF93FC0181918030B9F360DFFBCFCE
:100AA000FF93EF9368DFF1CFDF93CF93CDB7DEB73E
:100AB0002596A3DFCF91DF910895611102C00C94B8
:100AC0007E0508952CE2829FC0011124FC012BE0D9
:100AD000729FE00DF11D1124E60FF11DEE0FFF1FB7
:100AE000E851FF4F859194910895E82FF0E0EE0FC3
:100AF000FF1FE05AF0408591949108950E94B7132A
:100B000080E092E00E94BB042FEF84E39CE0215040
:100B100080409040E1F700C0000087E797E790939E
:100B20000108809300080E94281A80EF91E00C943D
:100B3000BB048AB1807F8AB98BB1807F8BB908955D
:100B40000E94990580B38D7880BB81B3826781BB99
:100B500084B1817084B985B18E6F85B9AEE2B1E0A0
:100B600011961C921E92E6E2F1E011821082139619
:100B70001C921E9212971382128215961C921E923C
:100B800014971582148217961C921E92169717823C
:100B900016820895BF92CF92DF92EF92FF920F9349
:100BA0001F93CF93DF93C6E2D1E0D12CCC24C39422
:100BB00045E0B42E52E4E52E52E0F52E82E0D81640
:100BC00061F093E0D91661F081E0D81619F0509ADF
:100BD000589808C0519A599805C0529A5A9802C01C
:100BE000539A5B9887EC90E00197F1F700C0000002
:100BF0008FB182958695869583708C25082F01701C
:100C000010E07D9903C022E030E002C020E030E037
:100C1000C801822B932B7C9903C024E030E002C0F2
:100C200020E030E0AC01422B532B23B1022E000C0C
:100C3000330B20953095C9018827990F881F992774
:100C400033E0880F991F3A95E1F7842B952B1E9975
:100C500003C040E150E002C040E050E0842B952BFF
:100C60001D9903C040E250E002C040E050E0842BF8
:100C7000952B1C9903C020E430E002C020E030E056
:100C8000822B932B1B9903C060E870E002C060E0E8
:100C900070E0862B972B1A9903C040E051E002C008
:100CA00040E050E0842B952B199903C020E032E0FE
:100CB00002C020E030E0822B932B799903C020E022
:100CC00034E002C020E030E0822B932B2881398170
:100CD0002817390741F19983888380910801882377
:100CE00001F18091B50180FF04C087E492E00E9489
:100CF000BB048091B50180FF0CC0809108011F9258
:100D00008F93FF92EF920E9454050F900F900F90D7
:100D10000F908091B50180FF04C080E492E00E94B2
:100D2000BB04B09208010E949905D394229694E0E6
:100D3000D91244CF80910801882361F181508093BA
:100D40000801882339F08FE99FE00197F1F700C08F
:100D5000000020C0809126019091270190932F01DF
:100D600080932E0180912801909129019093310167
:100D70008093300180912A0190912B01909333014F
:100D80008093320180912C0190912D019093350137
:100D90008093340181E0DF91CF911F910F91FF90FB
:100DA000EF90DF90CF90BF900895E82FF0E0EE0F26
:100DB000FF1FE25DFE4F808191810895CF92DF9207
:100DC000EF92FF920F931F93CF93DF9389E292E00C
:100DD0000E94BB048EE2E82E81E0F82EC0E0D0E055
:100DE00094E2C92E92E0D92E0BE112E0DF93CF936B
:100DF000DF92CF920E94540581E292E00E94BB04F0
:100E0000F701819191917F010E94C01A9F938F9366
:100E10001F930F930E94540589E192E00E94BB0446
:100E200021968DB79EB708960FB6F8949EBF0FBE59
:100E30008DBFC430D105D1F6DF91CF911F910F91B5
:100E4000FF90EF90DF90CF90089581FF02C0549AF9
:100E500001C054985C9808958091470108950895C1
:100E60009091BA01943009F059C09091E9009F70B7
:100E70003091EC00232F217030FD20E8922B22E0EE
:100E80002093E9002091EB0020FF29C02091EE0083
:100E900027FF25C020913601222321F02091E80070
:100EA00025FF1DC0109236014091E4005091E500ED
:100EB00026E007C06091E4007091E50046175707EF
:100EC00091F43091E80035FD19C03091BA01332317
:100ED00029F1353019F13091EB0035FFEBCF9F70E0
:100EE0009093E9001BC0215021F481E080933601EA
:100EF000F6CF4091E4005091E500E3CF8093F100FC
:100F00008091E80085FD05C08091E8008E77809390
:100F1000E8009F709093E90080E008958FEF0895B6
:100F2000CF93DF9300D01F92CDB7DEB72091BA01E7
:100F30002430D9F423E029839B838A8381E0809342
:100F4000E90080E0815021F09091E80095FFFACF10
:100F500040E050E063E070E0CE0101960E94070C93
:100F60008091E8008E778093E8000F900F900F90AB
:100F7000DF91CF910895CF93DF9300D01F92CDB72B
:100F8000DEB72091BA012430D9F422E029839B8373
:100F90008A8381E08093E90080E0815021F0909184
:100FA000E80095FFFACF40E050E063E070E0CE014A
:100FB00001960E94070C8091E8008E778093E800EC
:100FC0000F900F900F90DF91CF910895CF93DF9303
:100FD000EC018091BA01843049F590914901911159
:100FE00001C081E08093E90080E0815021F0909180
:100FF000E80095FFFACF8091490140E050E0882356
:1010000019F060E170E002C068E070E0CE010E947B
:10101000070C8091E8008E778093E80080E1FE0164
:10102000A7E3B1E001900D928A95E1F7DF91CF91AE
:10103000089508950895089508950C945C1A809178
:10104000BA01843041F58091E9008F702091EC0065
:10105000922F917020FD90E8892B92E09093E90007
:101060009091EB0090FF14C09091EE0097FF10C09C
:101070009091E80095FF03C01092F100F9CF909194
:10108000E80090FF05C09091E8009E779093E800FB
:101090008F708093E900089542E061EC81E00E9446
:1010A000BD0946E261EC82E00E94BD0942E260ECCB
:1010B00083E00E94BD0942E161EC84E00C94BD092B
:1010C0008091BC01833009F453C030F4813071F059
:1010D000823009F482C008958A3009F46EC08B30E2
:1010E00009F457C0893009F090C020C08091BB013D
:1010F000813A09F08AC08091E800877F8093E800F8
:101100008091BF019091C001892B21F460E187E3B8
:1011100091E003C060E080E090E070E00E94520C3B
:101120008091E8008B778093E80008958091BB015F
:10113000813209F06AC08091BF019091C001892B72
:1011400009F063C08091E800877F8093E800809178
:10115000E80082FD05C08091BA018111F8CF55C029
:101160008091F100809347018091E8008B7749C01E
:101170008091BB01813A09F048C08091E800877FE7
:101180008093E8008091E80080FFFCCF80911301FC
:1011900033C08091BB018132C1F58091E800877F27
:1011A0008093E8000E94F2099091BD0181E09111C5
:1011B00001C080E08093130108958091BB018132CA
:1011C00021F58091E800877F8093E8000E94F20972
:1011D0008091BE018093480108958091BB01813ABE
:1011E000A1F48091E800877F8093E8008091E80077
:1011F00080FFFCCF809148018093F1008091E8004E
:101200008E778093E8000C94F209089584B7877F65
:1012100084BF0FB6F894A895809160008861809390
:101220006000109260000FBE90E080E80FB6F89466
:1012300080936100909361000FBE0E94440A0E9457
:10124000CB0A8091E20084608093E20080E397E023
:101250000E94231A78948091BA018430E1F782E6E3
:1012600092E00E94BB040E94230F89E091E00E945B
:10127000990E81E592E00E94BB048091BA0185300D
:1012800069F40E944A1A8091B8018823B1F30E9440
:101290004B1A882391F30E94A709EFCF0E944F0FAA
:1012A000ECCF292F332723303105C9F060F42130EA
:1012B000310581F02230310509F041C08BE590E025
:1012C00021EA32E040C021323105E1F0223231051D
:1012D00031F135C082E190E02CEF32E034C0992743
:1012E0008130910549F028F0029749F5E3E7F2E0F3
:1012F00005C0EDE9F2E002C0E3E8F2E0849190E09D
:101300009F0121C06330D8F4E62FF0E0EE0FFF1FFD
:10131000E05EFE4F2081318189E090E014C06330AF
:1013200070F470E0FB01EE0FFF1FE65EFE4F2081C0
:101330003181FB01E95EFE4F808190E004C080E0D6
:1013400090E020E030E0FA0131832083089580E1CD
:1013500089BD82E189BD09B400FEFDCF8091D8002E
:101360008F7D8093D8008091E00082608093E000C0
:101370008091E00081FDFCCF0895982F973068F5AB
:101380009093E900981739F07091EC002091ED00EE
:101390005091F00003C0242F762F50E021FD02C0B1
:1013A0009F5FECCF3091EB003E7F3093EB003091AC
:1013B000ED003D7F3093ED003091EB0031603093D4
:1013C000EB007093EC002093ED005093F00020911F
:1013D000EE0027FDE5CF80E008958F708093E9004F
:1013E00081E008958091BB0187FF11C08091E800E2
:1013F00082FD05C08091BA018111F8CF11C08091A2
:10140000E8008B770BC08091BA01882349F0809166
:10141000E80080FFF8CF8091E8008E778093E800A5
:1014200008952091E4003091E50095E64091EC00AC
:10143000842F817040FF23C08091E80080FD1DC093
:101440008091BA01882399F0853099F08091EB0062
:1014500085FD11C04091E4005091E5002417350747
:1014600029F3915011F09A01E1CF84E0089582E0D0
:10147000089583E0089581E0089580E00895409103
:10148000E80042FFDDCF08950E94D70A0E94DF0ADC
:10149000E0EEF0E0808181608083E8EDF0E0808123
:1014A0008F77808319BCA7EDB0E08C918E7F8C93F1
:1014B00080818F7E80831092B9010895CF93DF934E
:1014C00000D0CDB7DEB70E94D70A0E94DF0A809114
:1014D000D8008F778093D8008091D800806880935F
:1014E000D8008091D8008F7D8093D80019BC1092CD
:1014F000BA011092B6011092B8011092B701AE0174
:101500004F5F5F4F60E080E091E00E945109892BBE
:1015100031F0E981FA813796E491E09314018091EA
:10152000E0008B7F8093E0008091D8008160809301
:10153000D8002091140130E088E090E040E082176C
:10154000930720F44F5F880F991FF9CF4295407F92
:10155000426060E080E00E94BD098091E1008E7FE2
:101560008093E1008091E20081608093E2008091AD
:10157000E20088608093E2008091E0008E7F80939B
:10158000E0008091D80080618093D8000F900F9088
:10159000DF91CF910895E7EDF0E080818160808355
:1015A00084E082BF81E08093B9010C945E0AE8ED8B
:1015B000F0E080818E7F80831092E2000895109287
:1015C000DA001092E10008951F920F920FB60F9269
:1015D00011242F933F934F935F936F937F938F9338
:1015E0009F93AF93BF93EF93FF938091E10082FFAE
:1015F0000BC08091E20082FF07C08091E1008B7FE9
:101600008093E1000E941F088091DA0080FF1FC0D4
:101610008091D80080FF1BC08091DA008E7F80937C
:10162000DA008091D90080FF0DC080E189BD82E1A0
:1016300089BD09B400FEFDCF81E08093BA010E940C
:10164000190805C019BC1092BA010E941A088091AD
:10165000E10080FF19C08091E20080FF15C08091F9
:10166000E2008E7F8093E2008091E20080618093AF
:10167000E2008091D80080628093D80019BC85E098
:101680008093BA010E941C088091E10084FF2EC063
:101690008091E20084FF2AC080E189BD82E189BD9A
:1016A00009B400FEFDCF8091D8008F7D8093D800D3
:1016B0008091E1008F7E8093E1008091E2008F7E37
:1016C0008093E2008091E20081608093E20080914B
:1016D000B601811106C08091E30087FD02C081E060
:1016E00001C084E08093BA010E941D088091E1004E
:1016F00083FF38C08091E20083FF34C08091E10015
:10170000877F8093E10082E08093BA011092B60156
:101710008091E1008E7F8093E1008091E2008E7FD6
:101720008093E2008091E20080618093E20020914A
:10173000140130E088E090E040E08217930720F445
:101740004F5F880F991FF9CF4295407F426060E05C
:1017500080E00E94BD098091F00088608093F000D5
:101760000E941B08FF91EF91BF91AF919F918F91C4
:101770007F916F915F914F913F912F910F900FBE8D
:101780000F901F9018951F920F920FB60F92112471
:101790002F933F934F935F936F937F938F939F9379
:1017A000AF93BF93CF93DF93EF93FF93C091E90083
:1017B000CF708091EC00D82FD17080FDD0E81092CE
:1017C000E9008091F000877F8093F00078940E9478
:1017D0002F0D1092E9008091F00088608093F00056
:1017E000CD2BCF70C093E900FF91EF91DF91CF91A6
:1017F000BF91AF919F918F917F916F915F914F9129
:101800003F912F910F900FBE0F901F901895CF9280
:10181000DF92EF92FF920F931F93CF93DF93EC0130
:101820008B016A010E94110A811133C0C114D104D5
:1018300039F0F60180819181081B190BC80FD91F5F
:10184000E12CF12C0115110519F18091E80085FDBD
:1018500016C08091E8008E778093E800C114D1040F
:1018600049F0F60180819181E80EF91EF182E08253
:1018700085E00FC00E94110A882321F30AC08991D4
:101880008093F10001501109FFEFEF1AFF0ADACF40
:1018900080E0DF91CF911F910F91FF90EF90DF904B
:1018A000CF9008952091C1013091C20126173707CA
:1018B00048F06115710539F42091E8002E772093E6
:1018C000E80001C0B901382F492F20E061157105EA
:1018D00009F441C08091BA01882309F44DC08530D4
:1018E00009F44CC08091E80083FD44C08091E80079
:1018F00082FD3AC08091E80080FFE8CF5091F3006C
:101900002091F200822F90E0952BE32FF42F8E1B75
:101910009F0BAF01480F591F2091140161157105EC
:1019200059F0A22FB0E04A175B0730F421912093C1
:10193000F10061507109EDCF822F90E021E0841712
:10194000950709F020E08091E8008E778093E80009
:101950003E2F4F2FBBCF2111BDCF06C08091BA01C2
:10196000882351F0853051F08091E80082FFF6CF56
:1019700080E0089581E0089582E0089583E008956D
:101980002091C1013091C2012617370748F0611537
:10199000710539F42091E8002E772093E80001C00A
:1019A000B901382F492F20E06115710509F442C0B3
:1019B0008091BA01882309F44EC0853009F44DC0E6
:1019C0008091E80083FD45C08091E80082FD3BC026
:1019D0008091E80080FFE8CF5091F3002091F20061
:1019E000822F90E0952BE32FF42F8E1B9F0BAF01DE
:1019F000480F591F209114016115710561F0A22F44
:101A0000B0E04A175B0738F424912093F100319637
:101A100061507109ECCF822F90E021E08417950787
:101A200009F020E08091E8008E778093E8003E2F57
:101A30004F2FBACF2111BCCF06C08091BA018823A5
:101A400051F0853051F08091E80082FFF6CF80E0C0
:101A5000089581E0089582E0089583E008950F934A
:101A60001F93CF93DF93CDB7DEB7AA970FB6F89445
:101A7000DEBF0FBECDBFEBEBF1E08091F1008193B3
:101A800021E0E33CF207C9F70E9460088091E8007A
:101A900083FF36C18091BB019091BC01492F50E07A
:101AA0004A30510508F02CC1FA01EA5AFF4F0C9454
:101AB000E81C803881F0823809F022C18091BF0192
:101AC0008F708093E9008091EB0085FB882780F977
:101AD0001092E90006C08091B7019091B801911170
:101AE00082609091E800977F9093E8008093F100E6
:101AF0001092F100CAC0282F2D7F09F001C1882360
:101B000019F0823061F0FCC08091BD01813009F094
:101B1000F7C0933009F080E08093B8012BC080912A
:101B2000BD01811127C08091BF018F7009F4E8C009
:101B30008093E9002091EB0020FF1CC0933021F43A
:101B40008091EB00806214C09091EB0090619093C3
:101B5000EB0021E030E0A90102C0440F551F8A9537
:101B6000E2F74093EA001092EA008091EB0088606F
:101B70008093EB001092E9008091E800877F88C095
:101B80008111BEC01091BD011F770FB7F8948091ED
:101B9000E800877F8093E8000E94F2098091E800C6
:101BA00080FFFCCF8091E3008078812B8093E3005D
:101BB00080688093E300111102C082E001C083E0DD
:101BC0008093BA010FBF9CC08058823008F098C043
:101BD0008091BD019091BE018C3D53E0950779F550
:101BE00083E08A838AE289834FB7F894DE011396F3
:101BF00020E03EE051E2E32FF0E050935700E49103
:101C000020FF03C0E295EF703F5FEF708E2F90E0F2
:101C1000EA3010F0C79601C0C0968D939D932F5F58
:101C2000243149F74FBF8091E800877F8093E80017
:101C30006AE270E0CE0101960E94520C14C0AE011F
:101C40004F5F5F4F6091BF010E945109BC01892B1A
:101C500009F456C09091E800977F9093E80089813D
:101C60009A810E94C00C8091E8008B778093E800F5
:101C700047C0803809F044C08091E800877F809396
:101C8000E8008091B6018093F1008091E8008E77A2
:101C90008093E8000E94F20933C0811131C0AE0187
:101CA0004F5F5F4F60E080E091E00E945109892B17
:101CB00039F1E981FA817196E4918091BD019091A9
:101CC000BE019927F0E0E817F907D4F08091E80009
:101CD000877F8093E8008091BD018093B6010E94C8
:101CE000F2098091B601811106C08091E30087FD61
:101CF00002C081E001C084E08093BA010E944C08D8
:101D00008091E80083FF0AC08091EB00806280939D
:101D1000EB008091E800877F8093E800AA960FB6D9
:101D2000F894DEBF0FBECDBFDF91CF911F910F9111
:101D3000089590934F0180934E01089580914E0134
:101D400090914F010895E0914E01F0914F0130972D
:101D500021F00190F081E02D099480E00895EF9248
:101D6000FF921F93CF93DF93F82E192FE0914E012E
:101D7000F0914F013097A9F10280F381E02D099590
:101D80008091B50182FF2DC080FF04C08EEA93E0F0
:101D90000E94BB04CF2DD12F10E188EAE82E83E00A
:101DA000F82E8091B50180FF0BC088811F928F9320
:101DB000FF92EF920E9454050F900F900F900F909A
:101DC000115021961111EDCF8091B50180FF09C00E
:101DD00086EA93E0DF91CF911F91FF90EF900C94F2
:101DE000BB04DF91CF911F91FF90EF900895209158
:101DF0004C0130914D012817390771F090934D0136
:101E000080934C01E0914E01F0914F01309721F009
:101E10000680F781E02D0994089520914A013091C0
:101E20004B012817390771F090934B0180934A01B9
:101E3000E0914E01F0914F01309721F00084F1853F
:101E4000E02D099408950E94E9190C94A005CF9300
:101E5000C82F8091B50182FF1EC080FF04C087ECAF
:101E600093E00E94BB048091B50180FF0CC01F92DB
:101E7000CF9382EC93E09F938F930E9454050F9031
:101E80000F900F900F908091B50180FF04C080ECFF
:101E900093E00E94BB048C2FCF910C9425075F9296
:101EA0006F927F928F929F92AF92BF92CF92DF926A
:101EB000EF92FF920F931F93CF93DF93CDB7DEB7CF
:101EC0002A970FB6F894DEBF0FBECDBF0E94CA0599
:101ED00091E5C92E91E0D92E00E010E0AA24A39448
:101EE000B12C502E802F0E94D5064C01F601619036
:101EF00071906F016826792661147104B1F40F5F47
:101F00001F4F0430110569F78FEF89838A831B8285
:101F10000E94F2198160782F9D838C8349815A81B8
:101F20006B818D810E9406103AC08091B50181FDC0
:101F30000E94DE0620E030E07501022E02C0EE0CA9
:101F4000FF1C0A94E2F7C3018E219F21892B09F11E
:101F50002E835F828E209F2091E0892809F490E0F3
:101F600098870E94F2198160782F9A8789874E811D
:101F70005F8168858A850E940610000F111FF80195
:101F8000EF5AFE4F80819181E826F926F182E082A6
:101F900006C02F5F3F4F2B30310571F6B0CF0E9446
:101FA000A30E909150018917D9F00E94A30E80933F
:101FB00050012A960FB6F894DEBF0FBECDBFDF9159
:101FC000CF911F910F91FF90EF90DF90CF90BF9036
:101FD000AF909F908F907F906F905F900C94270FA1
:101FE0002A960FB6F894DEBF0FBECDBFDF91CF911A
:101FF0001F910F91FF90EF90DF90CF90BF90AF9027
:102000009F908F907F906F905F900895CF93DF9314
:10201000CDB7DEB72B970FB6F894DEBF0FBECDBF9E
:102020004F83588769877A878B87DE01119686E010
:10203000FD0111928A95E9F785E0FE01379601903E
:102040000D928A95E1F749815A816B817C818D815E
:102050009E810E9445162B960FB6F894DEBF0FBEE8
:10206000CDBFDF91CF910895CF93C82F882309F476
:1020700098C08CEF8C0F813A48F48C2F0E941E1B65
:1020800081118FC08C2F0E94E0180CC080E28C0F51
:10209000883058F4C77081E001C0880FCA95EAF70C
:1020A0000E947B19CF910C94B2198BE58C0F833071
:1020B00078F4C53A29F0C63A31F083E890E005C0DB
:1020C00081E890E002C082E890E0CF910C94F70E96
:1020D00088E58C0F833108F064C0C83A39F1C93AF9
:1020E00041F1CA3A49F1CB3A51F1CC3A59F1CD3AE2
:1020F00061F1C03B69F1CE3A71F1CF3A79F1C13B60
:1021000081F1C23B89F1C33B91F1C43B99F1C53BDD
:10211000A1F1C63BA9F1C73BB1F1C83BB9F1C93B3D
:10212000C1F1CA3BC9F180E090E038C082EE90E096
:1021300035C089EE90E032C08AEE90E02FC085EB8A
:1021400090E02CC086EB90E029C087EB90E026C0A1
:102150008CEC90E023C08DEC90E020C083E891E00F
:102160001DC08AE891E01AC082E991E017C084E9B5
:1021700091E014C081E292E011C083E292E00EC0CF
:1021800084E292E00BC085E292E008C086E292E031
:1021900005C087E292E002C08AE292E0CF910C94FF
:1021A0000D0FCF910895882329F19CEF980F913A54
:1021B00018F40E942C190DC090E2980F983058F432
:1021C000877091E001C0990F8A95EAF7892F0E94E4
:1021D00081190C94B2199BE5980F933020F480E09C
:1021E00090E00C94F70E885A833120F480E090E060
:1021F0000C940D0F0895882321F00E947B190C94F4
:10220000B2190895882321F00E9481190C94B21903
:102210000895BF92CF92DF92EF92FF920F931F9398
:10222000CF93DF9300D000D000D0CDB7DEB76C01E4
:1022300085E0F601DE01119601900D928A95E1F795
:10224000F60183819481892B09F47BC2908181817D
:102250008F3F19F49F3F09F474C2F601F2800581A3
:1022600002950F7099838A8389819A810E949F18B1
:10227000182FB92E0E949E180E946517EB2DE2952B
:10228000EF704E2F50E0FA01E05AFF4F0C94E81C1B
:102290009B2D907F8B2D8F70082F992311F0029525
:1022A000007FFF2049F0002309F4F8C1802F0E942D
:1022B0008B190E94B219F2C1812F0E94D310002302
:1022C00009F43FC2802F0E94911926960FB6F89408
:1022D000DEBF0FBECDBFDF91CF911F910F91FF9059
:1022E000EF90DF90CF90BF900C94B2199B2D907F10
:1022F0008B2D8F70903211F08295807F112319F011
:10230000113011F12BC0FF20A9F0002389F1013019
:1023100079F526960FB6F894DEBF0FBECDBFDF91DC
:10232000CF911F910F91FF90EF90DF90CF90BF90D2
:102330000C949B19002319F0013009F402C28E831A
:102340000E949E198E8127C0FF2021F0063008F0E0
:10235000F8C10EC0053008F0F4C11DC0FF20C9F05F
:10236000002331F0F601958190FF98C19F7095830D
:1023700026960FB6F894DEBF0FBECDBFDF91CF918A
:102380001F910F91FF90EF90DF90CF90BF900C9432
:10239000FB10011198C126960FB6F894DEBF0FBE50
:1023A000CDBFDF91CF911F910F91FF90EF90DF9004
:1023B000CF90BF900C9402119B2D937009F075C0C3
:1023C000F110BFC1912F929596959770990F990F23
:1023D000812F8F70C82ED12CE12CF12C092E04C036
:1023E000CC0CDD1CEE1CFF1C0A94D2F714FF12C0AB
:1023F0000FE010E020E030E004C0000F111F221FAA
:10240000331F9A95D2F7C901B801609570958095F0
:10241000909503C060E070E0CB014B2D469546954A
:1024200043704230C1F060F56C297D298E299F29C7
:10243000413051F126960FB6F894DEBF0FBECDBFE6
:10244000DF91CF911F910F91FF90EF90DF90CF9090
:10245000BF900C948C176C297D298E299F29269674
:102460000FB6F894DEBF0FBECDBFDF91CF911F91A5
:102470000F91FF90EF90DF90CF90BF900C94A81732
:102480000E948C17C701B60126960FB6F894DEBFDE
:102490000FBECDBFDF91CF911F910F91FF90EF90B5
:1024A000DF90CF90BF900C947017FF2019F09B2DF8
:1024B000917001C09695992309F443C1912F92958B
:1024C00096959770990F990F812F8F70C82ED12CE8
:1024D000E12CF12C092E04C0CC0CDD1CEE1CFF1CE1
:1024E0000A94D2F714FF12C00FE010E020E030E0B1
:1024F00004C0000F111F221F331F9A95D2F7C90184
:10250000B801609570958095909503C060E070E08B
:10251000CB014B2D4695469543704230C1F060F596
:102520006C297D298E299F29413051F126960FB6BD
:10253000F894DEBF0FBECDBFDF91CF911F910F91F9
:10254000FF90EF90DF90CF90BF900C9466186C29AD
:102550007D298E299F2926960FB6F894DEBF0FBEDF
:10256000CDBFDF91CF911F910F91FF90EF90DF9042
:10257000CF90BF900C9482180E946618C701B601D4
:1025800026960FB6F894DEBF0FBECDBFDF91CF9178
:102590001F910F91FF90EF90DF90CF90BF900C9420
:1025A0004A18113F31F118F4103F39F072C0123F50
:1025B000A9F1133F09F447C06CC0FF20B1F005300A
:1025C00008F0BFC08B2D8F7126960FB6F894DEBF32
:1025D0000FBECDBFDF91CF911F910F91FF90EF9074
:1025E000DF90CF90BF900C942918063008F0A9C056
:1025F000E9CFFF20A9F08B2D8F7126960FB6F894A6
:10260000DEBF0FBECDBFDF91CF911F910F91FF9025
:10261000EF90DF90CF90BF900C94E317FF2059F319
:102620008B2D8F7126960FB6F894DEBF0FBECDBFEF
:10263000DF91CF911F910F91FF90EF90DF90CF909E
:10264000BF900C940418FF2099F08B2D8F71269663
:102650000FB6F894DEBF0FBECDBFDF91CF911F91B3
:102660000F91FF90EF90DF90CF90BF900C94CE171A
:1026700026960FB6F894DEBF0FBECDBFDF91CF9187
:102680001F910F91FF90EF90DF90CF90BF900C942F
:10269000C417FF20A9F0002309F4ADCF812F26969F
:1026A0000FB6F894DEBF0FBECDBFDF91CF911F9163
:1026B0000F91FF90EF90DF90CF90BF900C9434106B
:1026C000002309F4ADCF812F26960FB6F894DEBF14
:1026D0000FBECDBFDF91CF911F910F91FF90EF9073
:1026E000DF90CF90BF900C94D3104B2D4F70612F83
:1026F000C6010E94E61926960FB6F894DEBF0FBEFB
:10270000CDBFDF91CF911F910F91FF90EF90DF90A0
:10271000CF90BF900C94EA164B2D4F70612FC601DD
:1027200026960FB6F894DEBF0FBECDBFDF91CF91D6
:102730001F910F91FF90EF90DF90CF90BF900C947E
:102740005D0526960FB6F894DEBF0FBECDBFDF91B4
:10275000CF911F910F91FF90EF90DF90CF90BF909E
:1027600008950E9498190E946D190C94B2190E9444
:1027700088190C94B1130E949F18292F22952F704D
:102780002C3030F42A3070F42250223028F40AC061
:102790002C3021F02F3011F080E0089593FB882732
:1027A00080F9089581E00895CF93DF9300D000D0A1
:1027B0001F92CDB7DEB70F900F900F900F900F9034
:1027C000DF91CF910895CF93DF9300D000D000D058
:1027D000CDB7DEB726960FB6F894DEBF0FBECDBFDD
:1027E000DF91CF9108951F93CF93DF93C09159014B
:1027F00016E080915A01C81799F0D0E01C9FF001B3
:102800001D9FF00D1124E55AFE4F408151816281D8
:102810007381848195810E94E3132196C770E9CF6B
:10282000DF91CF911F91089540918B0150918C01C0
:1028300060918D0170918E0180918F019091900136
:102840000C94E3138091900182958F7009F054C02D
:1028500080918D01882309F44FC080915901A09186
:102860005A0140918E0150918F0160918B017091BE
:102870008C01B6E08A1709F43FC090E0411551057C
:10288000C1F17F3F11F46F3FA1F1B89FF001B99FF3
:10289000F00D1124E55AFE4F218127132AC0208113
:1028A000261327C02281211124C0238134812417BB
:1028B000350710F421503109241B350B283C310514
:1028C000C0F4209190012F7020612093900126E0A8
:1028D000289FF001299FF00D1124E05AFE4F8081BE
:1028E0008F70806180838BE891E00E9409110C94C5
:1028F000F31301968770BECF0895CF92DF92EF92C7
:10290000FF920F931F93CF93DF93CDB7DEB76297FC
:102910000FB6F894DEBF0FBECDBF8C0185E0F80185
:10292000DE011D9601900D928A95E1F7D8014C9138
:1029300011965C91119712966C9180918E019091F5
:102940008F01009709F475C130918B0170918C0152
:102950007F3F19F43F3F09F46CC1F801C380D48074
:10296000E0908D01EE2009F4BEC020919001C816C0
:10297000D90628F0D601A81BB90BCD0104C080955B
:1029800090958C0D9D1DFF24F394883C910578F063
:10299000F12C207F09F0C4C07C2DD98AC88A89898E
:1029A0000E94D4138BE891E00E940911AFC0822FDE
:1029B000807F09F045C0571313C0431311C0611144
:1029C0000FC02F702061209390010E9414148BE897
:1029D00091E00E94091180919001F80185832EC039
:1029E000CD2819F15F3F11F44F3FF9F0F62E611138
:1029F0001CC08091590120915A0136E0821709F4D8
:102A00005BC090E0389FF001399FF00D1124E55A2A
:102A1000FE4F7181571306C07081471303C0728146
:102A2000711103C001968770E9CFF62E662309F471
:102A30001CC180919001816080939001F12C15C19F
:102A4000571309C0431307C0611105C0809190015D
:102A5000F8018583C8C04D875E878D859E856A8B0A
:102A60000E94BB136A898823D1F16623C1F12091AA
:102A70009001822F82958F7090E0029774F0809180
:102A80008B0190918C0198878F831986DB86CA868B
:102A90002C87CE0107960E94091186E0F801ABE869
:102AA000B1E001900D928A95E1F70E9422140E94F4
:102AB0001414FF24F394D9C04D875E878D859E85BD
:102AC0000E949F18292F22952F70223008F0C1C034
:102AD0009F7009F0BBC0805E883008F4C6C0C80192
:102AE0000E940911E6CFC816D90608F453C0F601B2
:102AF000E81BF90BCF01883C910508F450C0F12C7C
:102B00007C2DD98AC88A89890E94D413EBE8F1E028
:102B100086E0DF011D928A95E9F70E941414A5C092
:102B2000571314C0431312C0611110C0809190015B
:102B3000F8018583C8010E94091186E0EBE8F1E005
:102B4000DF011D928A95E9F7FE2C8FC04D875E87C5
:102B50008D859E856A8B0E94BB136A89882309F440
:102B6000BECF662309F4BBCF20919001822F8295BE
:102B70008F7090E002970CF490CF80918B01909130
:102B80008C019A8389831B82DD82CC822E83CE01C5
:102B9000019681CF809590958C0D9D1DACCFF62E22
:102BA000662309F49CCF571333C0431331C02091DF
:102BB000900120FD24C0822F82958F70482F50E015
:102BC00041155105E1F0D80115962C9315974F301A
:102BD000510549F08F5F982F9295907F822F8F70CB
:102BE000892B15968C93C8010E94091186E0F80183
:102BF000ABE8B1E001900D928A95E1F78ECF86E0C7
:102C0000F801ABE8B1E001900D928A95E1F72DC093
:102C10004D875E878D859E850E94BB1381113DCFB8
:102C200080919001816080939001C8010E940911F8
:102C30001CC0662309F453CF4D875E878D859E8522
:102C40000E94BB13882309F44ACF27CF811143CFB9
:102C50000CC0243008F043CF9F7009F43CCFD8015A
:102C600015969C91907F09F036CF8F2D62960FB606
:102C7000F894DEBF0FBECDBFDF91CF911F910F91B2
:102C8000FF90EF90DF90CF9008951F93CF93DF9345
:102C9000CDB7DEB72C970FB6F894DEBF0FBECDBF11
:102CA0004F83588769877A878B879C87CE010796E1
:102CB0000E947D14882371F08A859B85892B09F4F5
:102CC00041C088858F3F09F065C08F818F3F09F033
:102CD00061C038C086E0FE013796DE011196019092
:102CE0000D928A95E1F76A857B856115710551F131
:102CF000FF81E885EF3F11F4FF3F21F120915A0158
:102D000030E0C9010196877099274091590150E040
:102D10008417950709F447C0F983EA837D836C83A0
:102D200096E0929FD001939FB00D1124A55ABE4FFB
:102D3000FE01319601900D929A95E1F780935A0128
:102D40000E94F31316E08091590190915A0189175E
:102D5000B9F1189FC0011124855A9E4F0E947D141D
:102D6000882371F1E09159011E9FF0011124E55A69
:102D7000FE4F4081518162817381848195810E94DF
:102D8000E3138091590190E0019687709927809311
:102D90005901D9CF4F81588569857A858B859C8566
:102DA0000E94E313CFCF0E94B71310925A011092E2
:102DB0005901EBE8F1E086E0DF011D928A95E9F721
:102DC0002C960FB6F894DEBF0FBECDBFDF91CF912A
:102DD0001F910895EF92FF920F931F93CF93DF936C
:102DE0008C01892B09F46AC0F12CEE24E394E801EC
:102DF0002196F8018491843740F4843008F04FC064
:102E0000813081F0823019F159C0853709F442C010
:102E100098F19CE7980F903708F050C08F770E9488
:102E2000D3103FC00E5F1F4FFE01849190E2980FB8
:102E3000983050F48770FE2D01C0FF0F8A95EAF795
:102E40008F2F0E948B192EC00E9434102BC00E5F52
:102E50001F4FFE01849190E2980F983050F48770D4
:102E6000FE2D01C0FF0F8A95EAF78F2F0E9491195E
:102E700019C00E94D31016C00E5F1F4FFE01C491EF
:102E8000CC2381F08FE99FE00197F1F700C00000AB
:102E9000C150F6CF0E5F1F4FFE01F49003C00E9499
:102EA00034108E018F2D882309F4A1CFEFE9FFE0C4
:102EB0003197F1F700C000008150F5CFDF91CF913D
:102EC0001F910F91FF90EF900895089560939501E1
:102ED0007093960180939701909398010C94B1138D
:102EE0000F931F93009195011091960120919701E6
:102EF00030919801DC01CB01802B912BA22BB32BBD
:102F00008093950190939601A0939701B0939801B7
:102F10001F910F910C94B1130F931F930091950182
:102F2000109196012091970130919801DC01CB011D
:102F300080239123A223B32380939501909396013C
:102F4000A0939701B09398011F910F910C94B11326
:102F50000F931F9300919501109196012091970175
:102F600030919801DC01CB0180279127A227B3275C
:102F70008093950190939601A0939701B093980147
:102F80001F910F910C94B113109291011092920124
:102F900010929301109294010C94B11341E050E00F
:102FA00060E070E004C0440F551F661F771F8A95CC
:102FB000D2F74093910150939201609393017093E3
:102FC00094010C94B11341E050E060E070E004C063
:102FD000440F551F661F771F8A95D2F78091910184
:102FE00090919201A0919301B0919401482B592B9B
:102FF0006A2B7B2B40939101509392016093930134
:10300000709394010C94B11341E050E060E070E0E3
:1030100004C0440F551F661F771F8A95D2F740954D
:103020005095609570958091910190919201A09139
:103030009301B0919401482359236A237B23409341
:1030400091015093920160939301709394010C94B9
:10305000B11341E050E060E070E004C0440F551F40
:10306000661F771F8A95D2F7809191019091920106
:10307000A0919301B0919401482759276A277B2793
:103080004093910150939201609393017093940146
:103090000C94B1130F931F93009191011091920121
:1030A0002091930130919401DC01CB01802B912B75
:1030B000A22BB32B8093910190939201A093930143
:1030C000B09394011F910F910C94B1130F931F9320
:1030D00000919101109192012091930130919401FE
:1030E000DC01CB0180239123A223B32380939101A0
:1030F00090939201A0939301B09394011F910F912B
:103100000C94B1130F931F930091910110919201B0
:103110002091930130919401DC01CB01802791270C
:10312000A227B3278093910190939201A0939301DA
:10313000B09394011F910F910C94B1130895CF9205
:10314000DF92EF92FF920F931F93CF93DF938C0147
:10315000C0909101D0909201E0909301F090940181
:103160008091950190919601A0919701B09198015D
:10317000C82AD92AEA2AFB2ACFE1D0E0D701C60122
:103180000C2E04C0B695A795979587950A94D2F70B
:1031900080FF07C0B8018C2F0E94D819813091059B
:1031A00031F4219758F7B80180E00E94D819DF91D7
:1031B000CF911F910F91FF90EF90DF90CF900895E6
:1031C00090914901992359F1982F96959695969546
:1031D0009F30A0F4E0911501F0911601E90FF11D67
:1031E000877021E030E0A90102C0440F551F8A9585
:1031F000E2F7CA019181892B818308959091B501ED
:1032000090FF29C01F928F9388EF93E09F938F9335
:103210000E9454050F900F900F900F9008952091E9
:10322000150130911601F90132969FEF40E051915E
:10323000851789F09F3F19F4511101C0942F4F5FFA
:103240004E30A9F79F3F39F0F901E90FF11D97FDC5
:10325000FA9582830895089590914901992361F127
:10326000982F9695969596959F30A8F4E091150124
:10327000F0911601E90FF11D877021E030E0A901FE
:1032800002C0440F551F8A95E2F7CA0180959181CB
:103290008923818308959091B50190FF1DC01F92ED
:1032A0008F938AED93E09F938F930E9454050F9024
:1032B0000F900F900F9008952091150130911601F5
:1032C000F9013296205F3F4F9081891301C010822F
:1032D0003196E217F307C1F7089581E090E0E0919D
:1032E0001501F0911601E80FF91F10820196803147
:1032F0009105A9F708959091AB01892B8093AB01BB
:10330000089580959091AB0189238093AB01089536
:103310001092AB0108959091AA01892B8093AA0184
:10332000089580959091AA0189238093AA01089518
:103330001092AA010895809399010895109299011D
:1033400008958091150190911601FC0131969C0120
:10335000205F3F4F80E0919191118F5FE217F3075B
:10336000D1F70895E0911501F09116018091AB011C
:103370008083E0911501F091160190818091AA015E
:10338000892B808380919901882361F0E091150158
:10339000F09116019081892B80830E94A1198111DF
:1033A0001092990180911501909116010C94AF0E25
:1033B0000E9462059C01805C9109809720F4822F15
:1033C0000E9475050895C9019F70089580E090E0FE
:1033D000089582E084BD93E095BD9AEF97BD8093F8
:1033E0006E0008952FB7F8948091AC019091AD01D3
:1033F000A091AE01B091AF012FBF08951F920F921F
:103400000FB60F9211248F939F93AF93BF93809128
:10341000AC019091AD01A091AE01B091AF010196C8
:10342000A11DB11D8093AC019093AD01A093AE019D
:10343000B093AF01BF91AF919F918F910F900FBE4D
:103440000F901F9018959093B1018093B00108954B
:103450000E94440AF8942FEF87EA91E621508040B9
:103460009040E1F700C0000087E090EBDC01809322
:10347000C3019093C401A093C501B093C6019CE021
:1034800088E10FB6F894A895809360000FBE9093E2
:103490006000FFCF0895CF930E94CA05C0E08C2F33
:1034A0000E94D506892B29F4CF5FC430C1F780E094
:1034B00001C081E0CF9108950C94B713CF92DF92B1
:1034C000EF92FF926C01EE24FF24C114D104E104B9
:1034D000F10421F0C701B60120E101C020E0C72EB0
:1034E000D82EE92EFF24C114D104E104F10419F00F
:1034F000285FC701B6016B017C0154E0F694E794A4
:10350000D794C7945A95D1F7C114D104E104F104BA
:1035100019F02C5FC701B6016B017C0142E0F69403
:10352000E794D794C7944A95D1F7C114D104E10424
:10353000F10419F02E5FC701B601DC01CB01B6958D
:10354000A79597958795892B8A2B8B2B09F02F5F51
:10355000822FFF90EF90DF90CF9008958295982F63
:10356000937344E0949F900111248C7C86958695FA
:10357000282B822F8575880F2A7A2695822B08950D
:103580001F93CF93DF931F92CDB7DEB799830E942D
:10359000AE1A182F9981892F0E94AE1A212F30E080
:1035A000322F2227A901482BCA010F90DF91CF911A
:1035B0001F910895CF93C82F8DE394E00E94BB0420
:1035C0006091950170919601809197019091980179
:1035D0000E945E1A1F928F938AE394E09F938F93C9
:1035E0000E94540585E394E00E94BB041F92CF9390
:1035F00082E394E09F938F930E94540580E394E0CC
:103600000E94BB0481E090E0A0E0B0E0BC01CD01ED
:1036100004C0660F771F881F991FCA95D2F70E94B2
:1036200066178DB79EB708960FB6F8949EBF0FBE6B
:103630008DBFCF910C94B71380E00895CF93C82F1E
:103640008091B401882321F0813009F497C1B8C179
:10365000E0911501F09116018081823209F0B2C12A
:103660008C2F0E941C1B8111AFC1CB3109F4FAC011
:1036700008F051C0C03109F41BC140F5C73009F44E
:10368000E1C0E8F4C63009F072C18091B501817FD4
:103690008E7F8093B50181E694E00E94BB0484E5AF
:1036A00094E00E94BB0483EA98E00E94BB048FE987
:1036B00098E00E94BB0481E08093B40185C1CB30C7
:1036C00009F475C0CE3009F4E0C051C1C63109F427
:1036D00022C120F4C13109F431C149C1C73109F413
:1036E00001C1C93109F043C18FE997E00E94BB04D1
:1036F00087E797E00E94BB0481E497E00E94BB0447
:1037000084E197E00E94BB048BEE96E00E94BB042C
:1037100080EC96E022C1C53309F422C168F4C732B7
:1037200009F41EC128F4CE3108F421C183EE1BC177
:10373000C93209F415C11BC1C63440F4CA3308F0BC
:1037400011C1C833A1F1C933C1F011C1C83409F0A6
:103750000EC10E94B71386E898E00E94BB042FEFC9
:1037600083ED90E3215080409040E1F700C00000DD
:103770000E94281A86E798E0F0C00E949E0E892BCE
:1037800069F00E949E0E9093B3018093B20180E095
:1037900090E00E94990E83EC98E0DFC08091B20126
:1037A0009091B3010E94990E88EB98E0D6C08FE308
:1037B00096E00E94BB0488E296E00E94BB0480E190
:1037C00096E00E94BB0488EF95E00E94BB048EED5A
:1037D00095E00E94BB0487EC95E00E94BB0487EA59
:1037E00095E00E94BB0481E995E00E94BB0480E85B
:1037F00095E00E94BB0488E695E00E94BB0488E542
:1038000095E00E94BB048EE395E00E94BB0485E234
:1038100095E00E94BB048CE095E00E94BB0483EF1E
:1038200094E00E94BB048AED94E00E94BB0489EB03
:1038300094E00E94BB0487E994E00E94BB048DE7FA
:1038400094E08BC08091B50180FF09C083E698E0C9
:103850000E94BB048091B501817F8E7F3DC081E5D0
:1038600098E035C08091B50181FB222720F991E0D5
:10387000922790FB81F98093B501992319F088E391
:1038800098E025C08EE198E068C08091B50182FB88
:10389000222720F991E0922790FB82F98093B501CD
:1038A000992319F083E098E012C087EE97E055C0A5
:1038B0008091B50183FB222720F991E0922790FBAC
:1038C00083F98093B501992351F08FEC97E00E9422
:1038D000BB048091B50181608093B50175C086EB12
:1038E00097E03BC08091AC019091AD01A091AE01F9
:1038F000B091AF01BF93AF939F938F938CEA96E003
:103900009F938F930E9454050F900F900F900F90EC
:103910000F900F9059C086E996E00E94BB040E9468
:10392000A30E1F928F938CE796E09F938F930E9434
:1039300054050F900F900F900F9046C00E94B71340
:103940009091490181E0892780934901882319F0EA
:103950008DE696E002C08DE596E00E94BB0434C07F
:1039600080E002C087EC8C0F0E94DA1A2DC08BE534
:1039700096E00E94BB0480E0817028C0C43199F0B9
:1039800018F4CB3029F016C0C93269F0C83391F46D
:1039900081E694E00E94BB0484E594E00E94BB04AD
:1039A0008CE294E009C088E194E00E94BB0410928C
:1039B000B40104C086E194E00E94BB0481E006C02B
:1039C0001092B40180E002C081E0D6CFCF9108957B
:1039D000EE0FFF1F0590F491E02D0994F894FFCFAE
:1039E0000000010003000200052C07E6072F07BBBB
:1039F00007900701089A013F2039670347030E0328
:063A0000B302CC02EC024F
:00000001FF
