:100000000C9466040C94AA040C94AA040C94AA04FC
:100010000C94AA040C94AA040C94AA040C94AA04A8
:100020000C94AA040C94AA040C94E20A0C94C10B3C
:100030000C94AA040C94AA040C94AA040C94AA0488
:100040000C94AA040C94AA040C94AA040C94AA0478
:100050000C94AA040C94171A0C94AA040C94AA04E5
:100060000C94AA040C94AA040C94AA040C94AA0458
:100070000C94AA040C94AA040C94AA040C94AA0448
:100080000C94AA040C94AA040C94AA040C94AA0438
:100090000C94AA040C94AA040C94AA040C94AA0428
:1000A0000C94AA040C94AA040C94AA04460D680D9E
:1000B000630E680D630EAA0DCE0D630E230E370E70
:1000C000301130115E115E117D137D137D137D1390
:1000D000C1117D13B812B81255137D137D136A1325
:1000E000F1A104851B8100F014001A00080015001E
:1000F000170000001C0018000C0012001300040080
:100100001600070009000A0000000B000D000E0099
:100110000F0033001D001B00060019000500E00061
:100120001100100036003700380029002B00E300D2
:10013000E1002C00E2002A00C0002D00340028005D
:100140001E021F0252002F02300200004B0024004A
:100150002500260025022002500051004F002102F8
:1001600000004E002100220023002E022F0030004C
:10017000260227022402E00035001E001F00200096
:100180003100C1004902E300E1002A00E2002C0036
:10019000C000370027002E0049004A0052004D00E1
:1001A0004B000000520040004100420043004C0060
:1001B000500051004F004E00000051003D003E0035
:1001C0003F0044000000800000000000C300E00089
:1001D00000003A003B003C00450000008100E300C5
:1001E000E1002A00E2002C00C2004600470048005F
:1001F0006E6F7420737570706F727465642E0A0070
:100200000A0A4A756D7020746F20626F6F746C6F8C
:10021000616465722E2E2E20000A00253031366270
:10022000003A200025303258000A722F6320303106
:1002300032333435363738394142434445460A0073
:100240000A002530325800626F756E6365213A20CE
:10025000004B6579626F6172642073746172742EF1
:100260000A0055534220636F6E6669677572656454
:100270002E0A000E034100740072006500750073C1
:10028000000000180374006500630068006E006FD2
:10029000006D0061006E0063007900000004030936
:1002A0000409025B00030100A032090400000103FD
:1002B000010100092111010001223F00070581030E
:1002C00008000109040100020300000009211101D6
:1002D0000001222000070582032000010705030317
:1002E000200001090402000103000000092111019E
:1002F00000012239000705840310000112011001DA
:1003000000000008C0167C04240001020001050161
:100310000906A101050719E029E71500250195083F
:1003200075018102050819012905950575019102DC
:10033000950175039101050719002977150025011D
:10034000957875018102C00631FF0974A101097514
:10035000150025FF9520750881020976150025FFF7
:10036000952075089102C005010906A1010507192C
:10037000E029E715002501950875018102950175B1
:100380000881010508190129059505750191029556
:1003900001750391010507190029FF150025FF9537
:1003A0000675088100C00A002530325820006B65B0
:1003B00079626F6172645F7265706F72743A200067
:1003C0000A0025303258006B6579626F6172645F94
:1003D0007365745F6C65643A200064656C5F6B657F
:1003E000795F6269743A2063616E27742064656C7A
:1003F0003A20253032580A006164645F6B65795F8A
:100400006269743A2063616E2774206164643A20E3
:10041000253032580A003F000A5175697420436F35
:100420006E736F6C65204D6F64650A00433E20005B
:100430000A0025750020746F200025750073776908
:100440007463685F64656661756C745F6C6179651F
:10045000723A20004553432F713A09717569740A45
:10046000000A0A2D2D2D2D2D20436F6E736F6C65A4
:100470002048656C70202D2D2D2D2D0A00506175A2
:10048000733A096A756D7020746F20626F6F746CB7
:100490006F616465720A00436170733A094C6F635F
:1004A0006B204B6579626F617264284368696C6484
:1004B0002050726F6F66290A00505363723A0970B8
:1004C0006F77657220646F776E2F72656D6F7465DC
:1004D0002077616B652D75700A00342F46343A0918
:1004E00073776974636820746F204C617965723426
:1004F000200A00332F46333A097377697463682002
:10050000746F204C6179657233200A00322F4632B5
:100510003A0973776974636820746F204C61796558
:100520007232200A00312F46313A097377697463B9
:100530006820746F204C6179657231200A00302F79
:100540004631303A0973776974636820746F204CC0
:100550006179657230200A006E3A09746F67676CC2
:1005600065204E4B524F0A00653A097072696E74ED
:1005700020656570726F6D20636F6E6669670A0033
:10058000733A097072696E74207374617475730ABA
:1005900000743A097072696E742074696D65722016
:1005A000636F756E740A00763A097072696E742012
:1005B0006465766963652076657273696F6E20265F
:1005C00020696E666F0A006D3A09746F67676C6523
:1005D000206D6F7573652064656275670A006B3AFC
:1005E00009746F67676C65206B6579626F6172640F
:1005F0002064656275670A00783A09746F67676CF2
:1006000065206D61747269782064656275670A009F
:10061000643A09746F67676C65206465627567206A
:10062000656E61626C650A00633A09656E74657295
:1006300020636F6E736F6C65206D6F64650A000ACE
:100640000A2D2D2D2D2D20436F6D6D616E64204878
:10065000656C70202D2D2D2D2D0A003F004E4B5224
:100660004F3A2064697361626C65640A004E4B52B4
:100670004F3A20656E61626C65640A00686F73743E
:100680005F6B6579626F6172645F6C656473282962
:100690003A2025580A000A0A2D2D2D2D2D2053749D
:1006A00061747573202D2D2D2D2D0A0074696D65D3
:1006B000725F636F756E743A202530346C580A008F
:1006C0004743433A20342E382E32204156522D4C87
:1006D0004942433A20312E382E30204156525F4154
:1006E0005243483A20617672350A004F5054494FC0
:1006F0004E533A204C55464120434F4E534F4C45A4
:1007000020434F4D4D414E44204E4B524F203430EC
:1007100039360A004255494C443A20383461656301
:1007200037342D6469727479202830303A31353A83
:100730003235204175672020372032303136290A82
:10074000005649443A203078313643302874656386
:10075000686E6F6D616E637929205049443A20308C
:1007600078303437432841747265757329205645B3
:10077000523A2033360A00444553433A20544D4BF5
:10078000206B6579626F617264206669726D776152
:10079000726520666F72204174726575730A000A73
:1007A0000A2D2D2D2D2D2056657273696F6E202D0B
:1007B0002D2D2D2D0A000A44454255473A206D6FD4
:1007C0007573652064697361626C65642E0A000A42
:1007D00044454255473A206D6F75736520656E61DB
:1007E000626C65642E0A000A44454255473A206B04
:1007F0006579626F6172642064697361626C6564BB
:100800002E0A000A44454255473A206B6579626FCB
:1008100061726420656E61626C65642E0A000A4430
:10082000454255473A206D61747269782064697356
:1008300061626C65642E0A000A44454255473A20BD
:100840006D617472697820656E61626C65642E0AF0
:10085000000A44454255473A20656E61626C656402
:100860002E0A000A44454255473A20646973616282
:100870006C65642E0A006E6F7420737570706F72F1
:100880007465642E0A000A0A4A756D7020746F2020
:10089000626F6F746C6F616465722E2E2E20004340
:1008A0003E20000A456E74657220436F6E736F6C54
:1008B00065204D6F64650A00556E6C6F636B6564EF
:1008C0002E0A004C6F636B65642E0A0011241FBE54
:1008D000CFEFDAE0DEBFCDBF04B603FE24C08091C7
:1008E000C3019091C401A091C501B091C6018730A8
:1008F000904BA740B04BB9F41092C3011092C401C1
:100900001092C5011092C60114BE84B7877F84BFC0
:1009100088E10FB6F89480936000109260000FBEDB
:10092000E0E0F8E3099511E0A0E0B1E0E4E1FAE3EA
:1009300002C005900D92A632B107D9F711E0A6E2E8
:10094000B1E001C01D92A33CB107E1F70E94050987
:100950000C94081D0C940000FF93EF93E091B001FC
:10096000F091B101309709F00995EF91FF91089549
:10097000FC018591803011F0EFDFFBCF0895FF2758
:10098000E0E230E247FF0CC0419597FF09C0EDE27D
:100990006095709580959095611D711D811D911DCB
:1009A00027FF02C0219530E350E2AA27660F771F88
:1009B000881F991FAA1FA41710F0A41B63955A95AE
:1009C000A9F7AA3008F0A95FA05DAF93F395611570
:1009D00071058105910541F7ED3211F4EF93F3951F
:1009E000F21718F43F93F395FBCF8F91B5DFFA958B
:1009F000E1F70895E991F9918591803021F08532F0
:100A000019F0AADFF9CF089520E0E8945591553206
:100A1000C1F3503311F4689455915A3348F450534C
:100A200090F3220F022E220F220F200D250FF4CF5C
:100A30000EF4219589919991533619F3533729F181
:100A4000533559F1BC0188279927E8945C3621F485
:100A50008991999168945591543639F446EF7EF016
:100A600077FF0DC08FEF9FEF0AC055374AE039F08E
:100A7000583540E121F0523642E009F00895FF93E5
:100A8000EF937DDFEF91FF91B7CFFF93EF93FC01E1
:100A900081918030B9F360DFFBCFFF93EF9368DF84
:100AA000F1CFDF93CF93CDB7DEB72596A3DFCF91FC
:100AB000DF910895611102C00C947A0508959BE0BE
:100AC000799FF00111249CE2899FE00DF11D112412
:100AD000E60FF11DEE0FFF1FE851FF4F8591949136
:100AE0000895E82FF0E0EE0FFF1FE05AF0408591E7
:100AF000949108950E94921380E092E00E94B804BD
:100B00002FEF84E39CE0215080409040E1F700C04B
:100B1000000087E797E790930108809300080E9400
:100B2000411A80EF91E00C94B8048AB1807F8AB9B1
:100B30008BB1807F8BB908950E94950580B38F7823
:100B400080BB81B3806781BB84B114B885B18FEF5E
:100B500085B910922F0110922E0110922701109248
:100B60002601109231011092300110922901109249
:100B70002801109233011092320110922B01109231
:100B80002A01109235011092340110922D01109219
:100B90002C010895BF92CF92DF92EF92FF920F93B4
:100BA0001F93CF93DF93C6E2D1E0D12CCC24C39422
:100BB00065E0B62E72E4E72E72E0F72E82E0D816DA
:100BC00061F093E0D91661F081E0D81619F0509ADF
:100BD000589808C0519A599805C0529A5A9802C01C
:100BE000539A5B9887EC90E00197F1F700C0000002
:100BF0008FB182958695869583708C25082F01701C
:100C000010E07D9B03C020E030E002C022E030E035
:100C1000202B312B7C9B03C080E090E002C084E05D
:100C200090E0282B392B83B1992787FD90958095EB
:100C300090958827990F881F992753E0880F991F4F
:100C40005A95E1F7282B392B1E9B03C040E050E05A
:100C500002C040E150E0242B352B1D9B03C040E037
:100C600050E002C040E250E0422B532B1C9B03C0DB
:100C700080E090E002C080E490E0842B952B1B9BE9
:100C800003C0E0E0F0E002C0E0E8F0E08E2B9F2B34
:100C90001A9B03C060E070E002C060E071E0862B48
:100CA000972B199B03C040E050E002C040E052E0A7
:100CB000842B952B189B03C040E050E002C040E01D
:100CC00054E0842B952B288139812817390741F16D
:100CD0009983888380910801882301F18091B5016F
:100CE00080FF04C087E492E00E94B8048091B501BF
:100CF00080FF0CC0809108011F928F93FF92EF92AA
:100D00000E9451050F900F900F900F908091B501A8
:100D100080FF04C080E492E00E94B804B092080111
:100D20000E949505D394229694E0D91247CF8091E2
:100D30000801882361F1815080930801882339F0EC
:100D40008FE99FE00197F1F700C0000020C080917B
:100D500026019091270190932F0180932E0180917D
:100D60002801909129019093310180933001809165
:100D70002A0190912B01909333018093320180914D
:100D80002C0190912D01909335018093340181E0E5
:100D9000DF91CF911F910F91FF90EF90DF90CF9057
:100DA000BF900895E82FF0E0EE0FFF1FE25DFE4FC9
:100DB000808191810895CF92DF92EF92FF920F93FD
:100DC0001F93CF93DF9389E292E00E94B804CEE2B2
:100DD000EC2EC1E0FC2EC0E0D0E014E2C12E12E007
:100DE000D12E0BE112E0DF93CF93DF92CF920E94DE
:100DF000510581E292E00E94B804F701819191913E
:100E00007F010E94DD1A9F938F931F930F930E947F
:100E1000510589E192E00E94B80421968DB79EB7F2
:100E200008960FB6F8949EBF0FBE8DBFC430D10593
:100E3000D1F6DF91CF911F910F91FF90EF90DF904E
:100E4000CF90089581FF02C0559A01C055985D98D2
:100E5000089580914701089508959091BA019430C2
:100E600009F05AC09091E9009F702091EC0020FF9A
:100E700002C020E801C020E0922B22E02093E9008C
:100E80002091EB0020FF29C02091EE0027FF25C014
:100E900020913601222321F02091E80025FF1DC07A
:100EA000109236012091E4003091E50066E007C021
:100EB0004091E4005091E5002417350791F44091EA
:100EC000E80045FD19C04091BA01442329F145309D
:100ED00019F14091EB0045FFEBCF9F709093E90033
:100EE0001BC0615021F481E080933601F6CF209140
:100EF000E4003091E500E3CF8093F1008091E800B9
:100F000085FD05C08091E8008E778093E8009F7092
:100F10009093E90080E008958FEF0895CF93DF93D9
:100F200000D01F92CDB7DEB72091BA012430D9F49A
:100F300023E029839B838A8381E08093E90080E01A
:100F4000815021F09091E80095FFFACF40E050E009
:100F500063E070E0CE0101960E94FD0B8091E800F5
:100F60008E778093E8000F900F900F90DF91CF91D4
:100F70000895CF93DF9300D01F92CDB7DEB72091B5
:100F8000BA012430D9F422E029839B838A8381E04B
:100F90008093E90080E0815021F09091E80095FF76
:100FA000FACF40E050E063E070E0CE0101960E948D
:100FB000FD0B8091E8008E778093E8000F900F90F2
:100FC0000F90DF91CF910895CF93DF93EC01809143
:100FD000BA01843049F590914901911101C081E035
:100FE0008093E90080E0815021F09091E80095FF26
:100FF000FACF8091490140E050E0882319F060E188
:1010000070E002C068E070E0CE010E94FD0B8091AC
:10101000E8008E778093E80080E1FE01A7E3B1E06D
:1010200001900D928A95E1F7DF91CF91089508958F
:101030000895089508950C94761A8091BA01843029
:1010400049F58091E9008F709091EC0090FF02C00B
:1010500090E801C090E0982B82E08093E9008091B5
:10106000EB0080FF14C08091EE0087FF10C08091DC
:10107000E80085FF03C01092F100F9CF8091E800ED
:1010800080FF05C08091E8008E778093E8009F7014
:101090009093E900089542E061EC81E00E94BC0970
:1010A00046E261EC82E00E94BC0942E260EC83E02F
:1010B0000E94BC0942E161EC84E00C94BC0980917F
:1010C000BC01833009F453C030F4813071F08230B8
:1010D00009F482C008958A3009F46EC08B3009F497
:1010E00057C0893009F090C020C08091BB01813A7F
:1010F00009F08AC08091E800877F8093E8008091A2
:10110000BF019091C001892B21F060E080E090E068
:1011100003C060E187E391E070E00E94460C80919B
:10112000E8008B778093E80008958091BB018132BD
:1011300009F06AC08091BF019091C001892B09F02C
:1011400063C08091E800877F8093E8008091E80089
:1011500082FD05C08091BA018111F8CF55C0809100
:10116000F100809347018091E8008B7749C080911E
:10117000BB01813A09F048C08091E800877F8093E5
:10118000E8008091E80080FFFCCF8091130133C01C
:101190008091BB018132C1F58091E800877F809307
:1011A000E8000E94F1099091BD0181E0911101C018
:1011B00080E08093130108958091BB01813221F575
:1011C0008091E800877F8093E8000E94F109809178
:1011D000BE018093480108958091BB01813AA1F43A
:1011E0008091E800877F8093E8008091E80080FF8D
:1011F000FCCF809148018093F1008091E8008E77C8
:101200008093E8000C94F109089584B7877F84BF28
:1012100088E10FB6F89480936000109260000FBED2
:1012200090E080E80FB6F89480936100909361009D
:101230000FBE0E94420A0E94C90A8091E2008460A7
:101240008093E2008DE297E00E943C1A78948091AE
:10125000BA018430E1F782E692E00E94B8040E946D
:10126000030F89E091E00E947C0E81E592E00E94EC
:10127000B8048091BA01853069F40E94641A8091A3
:10128000B8018823B1F30E94651A882391F30E9464
:10129000A609EFCF0E942F0FECCF292F3327233041
:1012A0003105A9F06CF42130310509F442C0223037
:1012B000310509F043C08BE590E021EA32E042C0FD
:1012C00021323105C9F02232310519F137C0992791
:1012D0008130910541F08230910541F0892B71F503
:1012E000EDE9F2E005C0E3E8F2E002C0E3E7F2E096
:1012F000849190E09F0126C0633000F5E62FF0E076
:10130000EE0FFF1FE05EFE4F2081318189E090E00B
:1013100019C0633098F4E62FF0E0DF01AA0FBB1F7D
:10132000A65EBE4F2D913C91E95EFE4F808190E01C
:1013300009C082E190E02CEF32E004C080E090E050
:1013400020E030E0FA0131832083089580E189BDF7
:1013500082E189BD09B400FEFDCF8091D8008F7D68
:101360008093D8008091E00082608093E0008091BB
:10137000E00081FDFCCF0895982F973058F59093A9
:10138000E900981739F07091EC002091ED00509130
:10139000F00003C0242F762F50E021FF19C03091B8
:1013A000EB003E7F3093EB003091ED003D7F3093BA
:1013B000ED003091EB0031603093EB007093EC0066
:1013C0002093ED005093F0002091EE0027FF07C01E
:1013D0009F5FD3CF8F708093E90081E0089580E014
:1013E00008958091BB0187FD05C08091E80080FFD2
:1013F0000EC012C08091E80082FD05C08091BA0144
:101400008111F8CF08958091E8008B7708C0809112
:10141000BA018111EACF08958091E8008E77809318
:10142000E80008958091E4009091E50045E6209160
:10143000EC0020FF21C02091E80020FD21C0209178
:10144000BA01222389F0253089F02091EB0025FD97
:101450000FC02091E4003091E5002817390739F3D7
:10146000415041F0C901E3CF82E0089583E008953F
:1014700081E0089584E008952091E80022FFDFCF05
:1014800080E008950E94D50A0E94DD0AE0EEF0E0B7
:10149000808181608083E8EDF0E080818F778083B8
:1014A00019BCA7EDB0E08C918E7F8C9380818F7EEC
:1014B00080831092B9010895CF93DF9300D0CDB708
:1014C000DEB70E94D50A0E94DD0A8091D8008F778E
:1014D0008093D8008091D80080688093D800809154
:1014E000D8008F7D8093D80019BC1092BA01109259
:1014F000B6011092B8011092B701AE014F5F5F4F75
:1015000060E080E091E00E944D09892B31F0E98193
:10151000FA813796E491E09314018091E0008B7F8B
:101520008093E0008091D80081608093D800209162
:10153000140130E088E090E040E08217930720F447
:101540004F5F880F991FF9CF4295407F426060E05E
:1015500080E00E94BC098091E1008E7F8093E100D1
:101560008091E20081608093E2008091E2008860D7
:101570008093E2008091E0008E7F8093E000809174
:10158000D80080618093D8000F900F90DF91CF91A9
:101590000895E7EDF0E080818160808384E082BF80
:1015A00081E08093B9010C945C0AE8EDF0E0808161
:1015B0008E7F80831092E20008951092DA001092DC
:1015C000E10008951F920F920FB60F9211242F93EE
:1015D0003F934F935F936F937F938F939F93AF93BB
:1015E000BF93EF93FF938091E10082FF0BC0809146
:1015F000E20082FF07C08091E1008B7F8093E100D1
:101600000E941D088091DA0080FF1FC08091D800E1
:1016100080FF1BC08091DA008E7F8093DA0080917A
:10162000D90080FF0DC080E189BD82E189BD09B488
:1016300000FEFDCF81E08093BA010E94170805C02B
:1016400019BC1092BA010E9418088091E10080FF35
:1016500019C08091E20080FF15C08091E2008E7F6A
:101660008093E2008091E20080618093E2008091AB
:10167000D80080628093D80019BC85E08093BA01BD
:101680000E941A088091E10084FF2EC08091E20040
:1016900084FF2AC080E189BD82E189BD09B400FED2
:1016A000FDCF8091D8008F7D8093D8008091E1009C
:1016B0008F7E8093E1008091E2008F7E8093E20034
:1016C0008091E20081608093E2008091B6018111F7
:1016D00004C08091E30087FF02C084E001C081E084
:1016E0008093BA010E941B088091E10083FF38C0FB
:1016F0008091E20083FF34C08091E100877F809376
:10170000E10082E08093BA011092B6018091E1007D
:101710008E7F8093E1008091E2008E7F8093E200D3
:101720008091E20080618093E2002091140130E01A
:1017300088E090E040E08217930720F44F5F880F25
:10174000991FF9CF4295407F426060E080E00E949F
:10175000BC098091F00088608093F0000E94190815
:10176000FF91EF91BF91AF919F918F917F916F9179
:101770005F914F913F912F910F900FBE0F901F904F
:1017800018951F920F920FB60F9211242F933F932B
:101790004F935F936F937F938F939F93AF93BF9379
:1017A000CF93EF93FF93C091E900CF708091EC004D
:1017B0001092E9008091F000877F8093F000789488
:1017C0000E941C0D1092E9008091F00088608093C7
:1017D000F000C093E900FF91EF91CF91BF91AF91DD
:1017E0009F918F917F916F915F914F913F912F9139
:1017F0000F900FBE0F901F901895CF92DF92EF922F
:10180000FF920F931F93CF93DF937C018B01EA012B
:101810000E94120A811131C0209731F0888199818C
:10182000081B190BE80EF91EC12CD12C011511054E
:1018300019F18091E80085FD14C08091E8008E7751
:101840008093E800209741F0888199818C0D9D1D3F
:101850009983888385E011C00E94120A882331F39E
:101860000CC0F70181917F018093F10001501109B3
:10187000FFEFCF1ADF0ADACF80E0DF91CF911F911F
:101880000F91FF90EF90DF90CF9008952091C101CC
:101890003091C2012617370748F06115710539F4F8
:1018A0002091E8002E772093E80001C0B90140E0C4
:1018B0006115710509F444C02091BA01222309F48D
:1018C0004BC0253009F44AC02091E80023FD42C0F6
:1018D0002091E80022FF06C08091E80082FF33C01B
:1018E00080E008952091E80020FFE2CF4091F300CE
:1018F0002091F20030E0342BFC01281B390BCF0182
:10190000820F931FA09114016115710559F04A2FA0
:1019100050E08417950730F481918093F100615075
:101920007109EDCF2A2F30E041E08217930709F0CB
:1019300040E08091E8008E778093E800CF01B8CF37
:101940004111BACFC9CF8091BA01882329F08530DF
:1019500019F604C081E0089582E0089583E00895B7
:101960002091C1013091C2012617370748F0611557
:10197000710539F42091E8002E772093E80001C02A
:10198000B90140E06115710509F445C02091BA0123
:10199000222309F44DC0253009F44CC02091E80001
:1019A00023FD44C02091E80022FF06C08091E8009A
:1019B00082FF34C080E008952091E80020FFE2CF4C
:1019C0004091F3002091F20030E0342BFC01281B01
:1019D000390BC9018E0F9F1FA0911401611571056C
:1019E00061F04A2F50E08417950738F48491809372
:1019F000F100319661507109ECCF2A2F30E041E0BF
:101A00008217930709F040E08091E8008E77809379
:101A1000E800CF01B7CF4111B9CFC8CF8091BA014B
:101A2000882331F0853009F0C1CF04C081E00895EA
:101A300082E0089583E008950F931F93CF93DF937F
:101A4000CDB7DEB7AA970FB6F894DEBF0FBECDBFF5
:101A5000EBEBF1E08091F100819321E0E33CF207B0
:101A6000C9F70E945F088091E80083FF2CC1209194
:101A7000BB013091BC01832F90E08A30910508F0C2
:101A800022C1FC01EA5AFF4F0C94021D203881F05C
:101A9000223809F018C18091BF018F708093E9004E
:101AA0008091EB0085FB882780F91092E90006C041
:101AB0008091B7019091B801911182609091E800F6
:101AC000977F9093E8008093F1001092F100C7C0D7
:101AD000822F8D7F09F0F7C0222319F0223061F0A8
:101AE000F2C08091BD01813009F0EDC0333009F0C2
:101AF00080E08093B80128C08091BD01811124C08D
:101B00002091BF012F7009F4DEC02093E90080917D
:101B1000EB0080FF19C08091EB00333011F480623C
:101B200011C080618093EB0081E090E0022E01C043
:101B3000880F0A94EAF78093EA001092EA008091F5
:101B4000EB0088608093EB001092E9008091E80040
:101B5000877F88C02111B7C01091BD011F770FB7D3
:101B6000F8948091E800877F8093E8000E94F10953
:101B70008091E80080FFFCCF8091E3008078812B8A
:101B80008093E30080688093E300112311F083E0E9
:101B900001C082E08093BA010FBF95C02058223067
:101BA00008F091C08091BD019091BE018C3D23E071
:101BB000920779F583E08A838AE289834FB7F894A4
:101BC000DE01139620E03EE051E2E32FF0E0509377
:101BD0005700E49120FF03C0E295EF703F5FEF7084
:101BE0008E2F90E0EA3010F0C79601C0C0968D931A
:101BF0009D932F5F243149F74FBF8091E800877F85
:101C00008093E8006AE270E0CE0101960E94460CE3
:101C100014C0AE014F5F5F4F6091BF010E944D093C
:101C2000009709F450C02091E800277F2093E80036
:101C3000BC0189819A810E94B00C8091E8008B7769
:101C40008093E80040C0203809F03DC08091E80052
:101C5000877F8093E8008091B6018093F1008091A6
:101C6000E8008E778093E8000E94F1092CC02111D2
:101C70002AC0AE014F5F5F4F60E080E091E00E94BC
:101C80004D09892B01F1E981FA817196E4919091D6
:101C9000BD01E917C0F08091E800877F8093E800DC
:101CA0009093B6010E94F1098091B601811104C0A0
:101CB0008091E30087FF02C084E001C081E080934F
:101CC000BA010E944B088091E80083FF0AC080910E
:101CD000EB0080628093EB008091E800877F809327
:101CE000E800AA960FB6F894DEBF0FBECDBFDF9115
:101CF000CF911F910F91089590934F0180934E01C2
:101D0000089580914E0190914F010895E0914E0108
:101D1000F0914F01309721F00190F081E02D09946E
:101D200080E00895FF920F931F93CF93DF938C0170
:101D3000E0914E01F0914F01309799F10280F381CB
:101D4000E02D09958091B50182FF2BC080FF04C072
:101D50008EEA93E00E94B804E80180E1F82E08EAD8
:101D600013E08091B50180FF0BC088811F928F9393
:101D70001F930F930E9451050F900F900F900F909B
:101D8000FA942196F110EDCF8091B50180FF09C042
:101D900086EA93E0DF91CF911F910F91FF900C9411
:101DA000B804DF91CF911F910F91FF90089520917A
:101DB0004C0130914D018217930771F090934D01C2
:101DC00080934C01E0914E01F0914F01309721F04A
:101DD0000680F781E02D0994089520914A01309101
:101DE0004B018217930771F090934B0180934A0146
:101DF000E0914E01F0914F01309721F00084F18580
:101E0000E02D099408950E94021A0C949C05CF932A
:101E1000C82F8091B50182FF1EC080FF04C087ECEF
:101E200093E00E94B8048091B50180FF0CC01F921E
:101E3000CF9322EC33E03F932F930E9451050F90F4
:101E40000F900F900F908091B50180FF04C080EC3F
:101E500093E00E94B8048C2FCF910C9422075F92DC
:101E60006F927F928F929F92AF92BF92CF92DF92AA
:101E7000EF92FF920F931F93CF93DF93CDB7DEB70F
:101E80002A970FB6F894DEBF0FBECDBF0E94CA05D9
:101E900091E5C92E91E0D92E00E010E0AA24A39488
:101EA000B12C502E802F0E94D2063C01F601E19009
:101EB000F1906F01E826F926E114F104B1F40F5F07
:101EC0001F4F0430110569F78FEF89838A831B82C6
:101ED0000E940B1A8160782F9D838C8349815A81DF
:101EE0006B818D810E94E60F3AC08091B50181FD22
:101EF0000E94DB0620E030E04501022E02C0880C83
:101F0000991C0A94E2F7C4018E219F21892B09F1C3
:101F10002E835F826820792081E0672809F480E0C1
:101F200088870E940B1A8160782F9A8789874E8153
:101F30005F8168858A850E94E60FF801EE0FFF1F1A
:101F4000EF5AFE4F80819181882599259183808366
:101F500006C02F5F3F4F2B30310571F6B0CF109187
:101F600050010E94860E1817D9F00E94860E8093A9
:101F700050012A960FB6F894DEBF0FBECDBFDF9199
:101F8000CF911F910F91FF90EF90DF90CF90BF9076
:101F9000AF909F908F907F906F905F900C94070F01
:101FA0002A960FB6F894DEBF0FBECDBFDF91CF915A
:101FB0001F910F91FF90EF90DF90CF90BF90AF9067
:101FC0009F908F907F906F905F900895CF93DF9355
:101FD000CDB7DEB72B970FB6F894DEBF0FBECDBFDF
:101FE0004F83588769877A878B87DE01119686E051
:101FF000FD0111928A95E9F785E0FE01379601907F
:102000000D928A95E1F749815A816B817C818D819E
:102010009E810E945A162B960FB6F894DEBF0FBE13
:10202000CDBFDF91CF910895CF93C82F882309F4B6
:1020300098C08CEF8C0F813A48F48C2F0E94391B8A
:1020400081118FC08C2F0E94F7180CC080E28C0F7A
:10205000883058F4C77081E001C0880FCA95EAF74C
:102060000E949219CF910C94CB198BE58C0F833081
:1020700078F4C53A29F0C63A31F482E890E005C018
:1020800081E890E002C083E890E0CF910C94D70EF5
:1020900088E58C0F833108F064C0C83A39F1C93A39
:1020A00041F1CA3A49F1CB3A51F1CC3A59F1CD3A22
:1020B00061F1C03B69F1CE3A71F1CF3A79F1C13BA0
:1020C00081F1C23B89F1C33B91F1C43B99F1C53B1E
:1020D000A1F1C63BA9F1C73BB1F1C83BB9F1C93B7E
:1020E000C1F1CA3BC9F58AE292E038C082EE90E0C5
:1020F00035C089EE90E032C08AEE90E02FC085EBCB
:1021000090E02CC086EB90E029C087EB90E026C0E1
:102110008CEC90E023C08DEC90E020C083E891E04F
:102120001DC08AE891E01AC082E991E017C084E9F5
:1021300091E014C081E292E011C083E292E00EC00F
:1021400084E292E00BC085E292E008C086E292E071
:1021500005C087E292E002C080E090E0CF910C944D
:10216000ED0ECF910895882329F19CEF980F913AB5
:1021700018F40E9444190DC090E2980F983058F45A
:10218000877091E001C0990F8A95EAF7892F0E9424
:1021900098190C94CB199BE5980F933020F480E0AC
:1021A00090E00C94D70E885A833120F480E090E0C0
:1021B0000C94ED0E0895882321F00E9492190C943E
:1021C000CB190895882321F00E9498190C94CB19FB
:1021D0000895CF92DF92EF92FF920F931F93CF93C8
:1021E000DF93CDB7DEB728970FB6F894DEBF0FBEEA
:1021F000CDBF8C0185E0F801DE01119601900D92B2
:102200008A95E1F7F80140813181F280258122959C
:102210002F7083819481892B31F03F3F31F481E02D
:102220004F3F19F403C081E001C080E080FD65C22A
:1022300049833A8389819A812F830E94B5189E83AE
:1022400088870E94B4180E9487173E81E32FE29589
:10225000EF70F0E0E05AFF4F2F8168850C94021D6B
:10226000932F907F132F1F70992311F01295107FD9
:10227000FF2059F0112309F4F3C1812F68870E94D0
:10228000A2190E94CB196885EBC1862F0E94B3105A
:10229000112309F432C2812F0E94A81928960FB683
:1022A000F894DEBF0FBECDBFDF91CF911F910F918C
:1022B000FF90EF90DF90CF900C94CB19932F907FED
:1022C000832F8F70903211F08295807F662319F0F2
:1022D000613009F12AC0FF20A1F0222381F12130D1
:1022E00071F528960FB6F894DEBF0FBECDBFDF9113
:1022F000CF911F910F91FF90EF90DF90CF900C94B2
:10230000B219222319F0213009F4F7C18E830E94FB
:10231000B5198E8126C0FF2021F0263008F0EDC1CE
:102320000EC0253008F0E9C11CC0FF20C1F02223F7
:1023300031F0F801958190FF93C19F7095832896A5
:102340000FB6F894DEBF0FBECDBFDF91CF911F91C6
:102350000F91FF90EF90DF90CF900C94DB10211144
:1023600093C128960FB6F894DEBF0FBECDBFDF91A4
:10237000CF911F910F91FF90EF90DF90CF900C9431
:10238000E210932F937009F076C0F110B6C1262F9A
:10239000229526952770220F220F862F8F70C82E28
:1023A000D12CE12CF12C022E04C0CC0CDD1CEE1C37
:1023B000FF1C0A94D2F764FF10C06FE070E080E069
:1023C00090E004C0660F771F881F991F2A95D2F7E7
:1023D000609570958095909503C060E070E0CB01AA
:1023E000232F269526952370422F50E04230510529
:1023F000D1F04330510559F16C297D298E299F294F
:102400004130510541F128960FB6F894DEBF0FBE5A
:10241000CDBFDF91CF911F910F91FF90EF90DF9093
:10242000CF900C94AC176C297D298E299F29289672
:102430000FB6F894DEBF0FBECDBFDF91CF911F91D5
:102440000F91FF90EF90DF90CF900C94C6170E94F1
:10245000AC17C701B60128960FB6F894DEBF0FBEC1
:10246000CDBFDF91CF911F910F91FF90EF90DF9043
:10247000CF900C949217FF2019F0932F917001C008
:102480009695992309F439C1262F22952695277010
:10249000220F220F862F8F70C82ED12CE12CF12C09
:1024A000022E04C0CC0CDD1CEE1CFF1C0A94D2F7DB
:1024B00064FF10C06FE070E080E090E004C0660F41
:1024C000771F881F991F2A95D2F760957095809580
:1024D000909503C060E070E0CB01232F26952695F0
:1024E0002370422F50E042305105D1F04330510566
:1024F00059F16C297D298E299F294130510541F1DF
:1025000028960FB6F894DEBF0FBECDBFDF91CF91F6
:102510001F910F91FF90EF90DF90CF900C94801857
:102520006C297D298E299F2928960FB6F894DEBF45
:102530000FBECDBFDF91CF911F910F91FF90EF9014
:10254000DF90CF900C949A180E948018C701B601B2
:1025500028960FB6F894DEBF0FBECDBFDF91CF91A6
:102560001F910F91FF90EF90DF90CF900C94661821
:10257000613F29F118F4603F39F06DC0623F99F175
:10258000633F09F444C067C0FF20A9F0253008F07C
:10259000B4C0832F8F7128960FB6F894DEBF0FBE9C
:1025A000CDBFDF91CF911F910F91FF90EF90DF9002
:1025B000CF900C944518263008F09FC0EACFFF203A
:1025C000A1F0832F8F7128960FB6F894DEBF0FBE4F
:1025D000CDBFDF91CF911F910F91FF90EF90DF90D2
:1025E000CF900C94FF17FF2061F3832F8F712896F3
:1025F0000FB6F894DEBF0FBECDBFDF91CF911F9114
:102600000F91FF90EF90DF90CF900C942018FF2057
:1026100091F0832F8F7128960FB6F894DEBF0FBE0E
:10262000CDBFDF91CF911F910F91FF90EF90DF9081
:10263000CF900C94EA1728960FB6F894DEBF0FBE21
:10264000CDBFDF91CF911F910F91FF90EF90DF9061
:10265000CF900C94E017FF20A1F0222309F4B1CF12
:10266000862F28960FB6F894DEBF0FBECDBFDF9140
:10267000CF911F910F91FF90EF90DF90CF900C942E
:102680001410222309F4B1CF862F28960FB6F894A0
:10269000DEBF0FBECDBFDF91CF911F910F91FF9095
:1026A000EF90DF90CF900C94B310432F4F70C80180
:1026B0000E94FF1928960FB6F894DEBF0FBECDBF5B
:1026C000DF91CF911F910F91FF90EF90DF90CF900E
:1026D0000C940717432F4F70C80128960FB6F89433
:1026E000DEBF0FBECDBFDF91CF911F910F91FF9045
:1026F000EF90DF90CF900C945A0528960FB6F8947F
:10270000DEBF0FBECDBFDF91CF911F910F91FF9024
:10271000EF90DF90CF9008950E94AF190E94841926
:102720000C94CB190E949F190C948C130E94B5181D
:10273000292F22952F7030E02C3031054CF42A30AF
:1027400031056CF4225031092230310570F407C094
:102750002C30310531F02F30310519F006C081E001
:10276000089593FB882780F9089580E00895CF931A
:10277000DF9300D000D01F92CDB7DEB70F900F903F
:102780000F900F900F90DF91CF910895CF93DF932B
:1027900000D000D000D0CDB7DEB726960FB6F894A3
:1027A000DEBF0FBECDBFDF91CF9108951F93CF93B2
:1027B000DF93C091590116E080915A01C81799F032
:1027C000D0E01C9FF0011D9FF00D1124E55AFE4F33
:1027D0004081518162817381848195810E94C613F9
:1027E0002196C770E9CFDF91CF911F910895409155
:1027F0008B0150918C0160918D0170918E018091BF
:102800008F01909190010C94C613CF938091900109
:1028100082958F7009F05FC080918D01882309F443
:102820005AC020915901A0915A0160918B01709179
:102830008C0180918E0190918F0131E06F3F09F002
:1028400030E0B32FC6E02A1709F445C0009721F005
:102850007F3F21F44B2F03C041E001C040E030E056
:1028600040FD35C0C29FF001C39FF00D1124E55A11
:10287000FE4F418174132BC04081641328C04281F4
:10288000411125C0438154814817590710F4415024
:102890005109481B590B483C5105C8F480919001DF
:1028A0008F7080618093900186E0829FF001839F0A
:1028B000F00D1124E05AFE4F80818F70806180837B
:1028C0008BE891E00E94E910CF910C94D6132F5F12
:1028D0003F4F2770B8CFCF910895CF92DF92EF92FC
:1028E000FF920F931F93CF93DF93CDB7DEB762971D
:1028F0000FB6F894DEBF0FBECDBF8C0185E0F801A6
:10290000DE011D9601900D928A95E1F7D8014C9158
:1029100011965C91119712966C9112971396ED9007
:10292000FC90149770918B01E0918C0120918E01A5
:1029300030918F012115310531F0EF3F31F481E005
:102940007F3F19F403C081E001C080E0B82FB1706F
:10295000CB2E80FD6CC1D0908D01DD2009F4F5C037
:10296000F0919001E216F30638F0C701821B930B39
:10297000883C910548F09BC0209530952E0D3F1D59
:10298000283C310508F093C08F2F807F09F052C09A
:10299000E51314C0741312C0D62E61110FC0FF705E
:1029A000F061F09390010E94F7138BE891E00E9490
:1029B000E91080919001F80185836CC1EF2831F016
:1029C0005F3F31F481E04F3F19F403C081E001C063
:1029D00080E080FD03C081E0862701C080E0F82F01
:1029E000F170FF2E80FF1CC08091590120915A0187
:1029F00036E0821709F428C190E0389FF001399F32
:102A0000F00D1124E55AFE4F7181571306C07081F5
:102A1000471303C07281671303C001968770E9CF23
:102A2000D62E662309F436C180919001816080938F
:102A3000900153C0E51308C0741306C0611104C0AF
:102A4000D8011596FC93AEC04D875E878D859E8517
:102A50006A8B0E9496136A89882329F1D62E6623F1
:102A600011F120919001822F82958F7090E0029752
:102A70000CF460C080918B0190918C0198878F83BA
:102A80001986FB86EA862C87CE01079651C0E5178A
:102A900031F14D875E878D859E856A8B0E949613E6
:102AA0006A8981112EC0C8010E94E910A4C08F2F2D
:102AB000807F69F77E2DF98AE88A89890E94B71399
:102AC0008BE891E00E94E910EBE8F1E086E0DF019D
:102AD0001D928A95E9F70E94F713D12CDBC074137D
:102AE000D8CF6111D6CFD8011596FC93C8010E94AA
:102AF000E910EBE8F1E086E0DF011D928A95E9F745
:102B0000C9C0D62E662379F220919001822F82953A
:102B10008F7090E0029774F080918B0190918C01FE
:102B20009A8389831B82FD82EC822E83CE010196DB
:102B30000E94E91086E0F801ABE8B1E001900D9247
:102B40008A95E1F70E9405146FC0E216F30628F09B
:102B5000C701821B930B9C0104C0209530952E0D5C
:102B60003F1D283C310508F052C0D62E662309F4DB
:102B70009ACFE5132CC074132AC08091900180FD78
:102B80001DC0982F92959F70C9F0D80115968C930F
:102B900015979F3039F09F5F9295907F8F70892BAA
:102BA00015968C93C8010E94E91086E0F801ABE805
:102BB000B1E001900D928A95E1F736C086E0F80108
:102BC000ABE8B1E001900D928A95E1F763C04D87C3
:102BD0005E878D859E850E949613882379F086E016
:102BE000F801ABE8B1E001900D928A95E1F70E94FF
:102BF00005140E94F713DD24D3944CC080919001FA
:102C0000816080939001C8010E94E91043C07E2D2D
:102C1000F98AE88A89890E94B713EBE8F1E086E037
:102C2000DF011D928A95E9F70E94F71333C06623EE
:102C300009F439CF4D875E878D859E850E94961356
:102C4000882309F430CFCBCF4D875E878D859E8555
:102C50000E94B518292F22952F7030E022303105BF
:102C60002CF49F7041F0811106C00CC02430310556
:102C70002CF49F7049F4805E883020F0C8010E94D7
:102C8000E910CF2CDC2C06C0D80115969C91907FC2
:102C900091F7F8CF8D2D62960FB6F894DEBF0FBE78
:102CA000CDBFDF91CF911F910F91FF90EF90DF90FB
:102CB000CF9008951F93CF93DF93CDB7DEB72C97B6
:102CC0000FB6F894DEBF0FBECDBF4F83588769871C
:102CD0007A878B879C87CE0107960E946D14882384
:102CE000C1F02F8138858A859B85892B31F03F3F44
:102CF00011F080E003C02F3FE1F781E0811147C070
:102D00004F81588569857A858B859C850E94C6137D
:102D10003EC086E0FE013796DE01119601900D92CD
:102D20008A95E1F7FF81E8854A855B854115510564
:102D300031F0EF3F31F481E0FF3F19F403C081E04F
:102D400001C080E080FD23C020915A0130E0C9011C
:102D50000196877099276091590170E0861797074F
:102D6000F1F1F983EA835D834C8396E0929FD00171
:102D7000939FB00D1124A55ABE4FFE0131960190CC
:102D80000D929A95E1F780935A010E94D61316E0AE
:102D90008091590190915A01891779F1189FC001CA
:102DA0001124855A9E4F0E946D14882331F1E091C1
:102DB00059011E9FF0011124E55AFE4F40815181B7
:102DC00062817381848195810E94C613809159012B
:102DD00090E001968770992780935901D9CF0E947E
:102DE000921310925A0110925901EBE8F1E086E03B
:102DF000DF011D928A95E9F7CACF2C960FB6F89499
:102E0000DEBF0FBECDBFDF91CF911F910895EF922E
:102E1000FF920F931F93CF93DF939C01009709F4C8
:102E20006FC0F12CEE24E394E9012196F90184911D
:102E3000843740F4843008F054C0813081F082300F
:102E400021F15EC0853709F447C0B0F19CE7980FC7
:102E5000903708F055C08F770E94B31044C08901A5
:102E60000E5F1F4FFE01849190E2980F983050F44E
:102E70008770FE2D01C0FF0F8A95EAF78F2F0E9401
:102E8000A21915C00E94141012C089010E5F1F4FB5
:102E9000FE01849190E2980F983058F48770FE2DCF
:102EA00001C0FF0F8A95EAF78F2F0E94A819E80149
:102EB0001AC00E94B310FBCF2E5F3F4FFE01C4919A
:102EC000CC2341F08FE99FE00197F1F700C00000AB
:102ED000C150F6CFE90107C0FE01F490E901229646
:102EE00002C00E9414108F2D882341F0EFE9FFE00B
:102EF0003197F1F700C000008150F6CF9E0194CFCA
:102F0000DF91CF911F910F91FF90EF900895089559
:102F10006093950170939601809397019093980127
:102F20000C948C130F931F930091950110919601AF
:102F30002091970130919801062B172B282B392BC4
:102F40000093950110939601209397013093980177
:102F50001F910F910C948C130F931F930091950167
:102F60001091960120919701309198010623172323
:102F700028233923009395011093960120939701FC
:102F8000309398011F910F910C948C130F931F9302
:102F9000009195011091960120919701309198012F
:102FA00006271727282739270093950110939601A4
:102FB00020939701309398011F910F910C948C13DB
:102FC000109291011092920110929301109294012B
:102FD0000C948C1341E050E060E070E004C0440FBA
:102FE000551F661F771F8A95D2F740939101509322
:102FF000920160939301709394010C948C1341E0BF
:1030000050E060E070E004C0440F551F661F771F5A
:103010008A95D2F78091910190919201A0919301AC
:10302000B0919401842B952BA62BB72B8093910103
:1030300090939201A0939301B09394010C948C13FC
:1030400041E050E060E070E004C0440F551F661F8F
:10305000771F8A95D2F7409550956095709580912D
:10306000910190919201A0919301B09194018423D8
:103070009523A623B7238093910190939201A09367
:103080009301B09394010C948C1341E050E060E004
:1030900070E004C0440F551F661F771F8A95D2F752
:1030A0008091910190919201A0919301B09194012E
:1030B00084279527A627B7278093910190939201A3
:1030C000A0939301B09394010C948C130F931F93CE
:1030D00000919101109192012091930130919401FE
:1030E000062B172B282B392B00939101109392015B
:1030F00020939301309394011F910F910C948C13A2
:103100000F931F93009191011091920120919301CF
:10311000309194010623172328233923009391012A
:103120001093920120939301309394011F910F917A
:103130000C948C130F931F930091910110919201A5
:1031400020919301309194010627172728273927CA
:103150000093910110939201209393013093940175
:103160001F910F910C948C130895CF92DF92EF92E0
:10317000FF920F931F93CF93DF93EC01C0909501C3
:10318000D0909601E0909701F09098018091910184
:1031900090919201A0919301B0919401C82AD92AEB
:1031A000EA2AFB2A0FE110E0B701A601002E04C0B5
:1031B00076956795579547950A94D2F740FF07C0D3
:1031C000BE01802F0E94F1198130910539F4015020
:1031D000110950F7BE0180E00E94F119DF91CF91F3
:1031E0001F910F91FF90EF90DF90CF9008959091F5
:1031F0004901992341F1982F9695969596959F3080
:1032000088F4E0911501F0911601E90FF11D877026
:1032100021E030E001C0220F8A95EAF78181822BFC
:10322000818308959091B50190FF2DC01F928F93D7
:1032300088EF93E09F938F930E9451050F900F901A
:103240000F900F900895409115015091160120E0C4
:1032500030E09FEFFA01E20FF31F6281681799F0E7
:103260009F3F19F4611101C0922F2F5F3F4F2E3005
:10327000310581F79F3F39F0FA01E90FF11D97FD04
:10328000FA9582830895089590914901992349F10F
:10329000982F9695969596959F3090F4E09115010C
:1032A000F0911601E90FF11D877021E030E001C0B7
:1032B000220F8A95EAF7209581812823218308959A
:1032C0009091B50190FF1FC01F928F938AED93E0FC
:1032D0009F938F930E9451050F900F900F900F9026
:1032E0000895409115015091160120E030E0FA0157
:1032F000E20FF31F9281981301C012822F5F3F4F9C
:103300002E303105A1F7089581E090E0E09115019C
:10331000F0911601E80FF91F108201968031910596
:10332000A9F708959091AB01982B9093AB01089564
:1033300080959091AB0198239093AB0108951092E2
:10334000AB0108959091AA01982B9093AA0108953A
:1033500080959091AA0198239093AA0108951092C4
:10336000AA010895809399010895109299010895F2
:10337000409115015091160120E030E080E0FA0103
:10338000E20FF31F918191118F5F2F5F3F4F2F301D
:103390003105A9F70895E0911501F091160180918A
:1033A000AB018083E0911501F0911601808190912D
:1033B000AA01892B808390919901992361F0E09172
:1033C0001501F09116018081892B80830E94B81924
:1033D00081111092990180911501909116010C9420
:1033E000920E0E945F059C01805C9109809720F4F9
:1033F000822F0E9471050895C9019F70089580E091
:1034000090E0089582E084BD93E095BD9AEF97BD6A
:1034100080936E0008952FB7F8948091AC0190913D
:10342000AD01A091AE01B091AF012FBF08951F92E1
:103430000F920FB60F9211248F939F93AF93BF9368
:103440008091AC019091AD01A091AE01B091AF011E
:103450000196A11DB11D8093AC019093AD01A09385
:10346000AE01B093AF01BF91AF919F918F910F903B
:103470000FBE0F901F9018959093B1018093B001EB
:1034800008950E94420AF8942FEF87EA91E62150AE
:1034900080409040E1F700C0000087E090EBDC0145
:1034A0008093C3019093C401A093C501B093C6015A
:1034B0002CE088E190E00FB6F894A8958093600026
:1034C0000FBE20936000FFCF0895CF930E94CA05DE
:1034D000C0E08C2F0E94D206892B29F4CF5FC43024
:1034E000C1F780E001C081E0CF9108950C94921360
:1034F000CF92DF92EF92FF920F931F936C01EE2415
:10350000FF24C114D104E104F10421F46B017C0116
:1035100080E001C080E133272F2D1E2D0D2D0115D8
:1035200011052105310519F0885F680179019701BE
:103530008601A4E03695279517950795AA95D1F7AA
:10354000011511052105310519F08C5F680179011C
:1035500097018601F2E03695279517950795FA951C
:10356000D1F7011511052105310519F08E5F6801AC
:103570007901B701A6017695679557954795452B33
:10358000462B472B09F08F5F1F910F91FF90EF9013
:10359000DF90CF9008958295982F9C7C9695969574
:1035A000837344E0849F90011124922B892F8A7A9F
:1035B00086959575990F892B08951F93CF93DF9367
:1035C0001F92CDB7DEB799830E94CB1A182F99812D
:1035D000892F0E94CB1A212F30E0322F2227A901F8
:1035E000482BCA010F90DF91CF911F910895CF937F
:1035F000C82F8DE394E00E94B8046091950170910A
:10360000960180919701909198010E94781A1F92DB
:103610008F932AE334E03F932F930E94510585E373
:1036200094E00E94B8041F92CF9322E334E03F93CA
:103630002F930E94510580E394E00E94B80461E05A
:1036400070E080E090E004C0660F771F881F991F2C
:10365000CA95D2F70E9488178DB79EB708960FB605
:10366000F8949EBF0FBE8DBFCF910C94921380E053
:103670000895CF93C82F8091B401882321F0813021
:1036800009F499C1BAC1E0911501F0911601808148
:10369000823209F0B4C18C2F0E94371B811188C17E
:1036A000CB3109F4FAC008F051C0C03109F41BC194
:1036B00040F5C73009F4E1C0E8F4C63009F072C142
:1036C0008091B501817F8E7F8093B50181E694E082
:1036D0000E94B80484E594E00E94B80483EA98E06C
:1036E0000E94B8048FE998E00E94B80481E08093BA
:1036F000B4015EC1CB3009F475C0CE3009F4E0C02E
:1037000051C1C63109F422C120F4C13109F431C1DB
:1037100049C1C73109F401C1C93109F043C18FE979
:1037200097E00E94B80487E797E00E94B80481E41C
:1037300097E00E94B80484E197E00E94B8048BEE01
:1037400096E00E94B80480EC96E022C1C53309F4EB
:1037500022C168F4C73209F41EC128F4CE3108F43E
:1037600021C183EE1BC1C93209F415C11BC1C63486
:1037700040F4CA3308F011C1C833A1F1C933C1F014
:1037800011C1C83409F00EC10E94921386E898E076
:103790000E94B8042FEF83ED90E3215080409040C9
:1037A000E1F700C000000E94411A86E798E0F0C0EF
:1037B0000E94810E892B69F00E94810E9093B301C3
:1037C0008093B20180E090E00E947C0E83EC98E050
:1037D000DFC08091B2019091B3010E947C0E88EB12
:1037E00098E0D6C08FE396E00E94B80488E296E0A5
:1037F0000E94B80480E196E00E94B80488EF95E04A
:103800000E94B8048EED95E00E94B80487EC95E024
:103810000E94B80487EA95E00E94B80481E995E027
:103820000E94B80480E895E00E94B80488E695E01C
:103830000E94B80488E595E00E94B8048EE395E004
:103840000E94B80485E295E00E94B8048CE095E0FF
:103850000E94B80483EF94E00E94B8048AED94E0DB
:103860000E94B80489EB94E00E94B80487E994E0D0
:103870000E94B8048DE794E08BC08091B50180FF71
:1038800009C083E698E00E94B8048091B501817F69
:103890008E7F3DC081E598E035C09091B50191FBE8
:1038A000882780F921E0822780FB91F99093B50168
:1038B000882319F088E398E025C08EE198E068C07D
:1038C0009091B50192FB882780F921E0822780FB47
:1038D00092F99093B501882319F083E098E012C023
:1038E00087EE97E055C09091B50193FB882780F94A
:1038F00021E0822780FB93F99093B501882351F052
:103900008FEC97E00E94B8048091B50181608093AC
:10391000B5014EC086EB97E03BC08091AC01909121
:10392000AD01A091AE01B091AF01BF93AF939F9352
:103930008F938CEA96E09F938F930E9451050F908E
:103940000F900F900F900F900F9032C086E996E085
:103950000E94B8040E94860E1F928F938CE796E017
:103960009F938F930E9451050F900F900F900F908F
:103970001FC00E9492138091490191E08927809392
:103980004901882319F08DE696E002C08DE596E0A6
:103990000E94B8040DC080E002C087EC8C0F0E942A
:1039A000F71A06C08BE596E00E94B80480E001C0DB
:1039B00081E0817025C0C43199F018F4CB3029F032
:1039C00016C0C93269F0C83391F481E694E00E94D0
:1039D000B80484E594E00E94B8048CE294E009C045
:1039E00088E194E00E94B8041092B40104C086E11A
:1039F00094E00E94B80481E003C01092B40180E01A
:103A0000CF910895EE0FFF1F0590F491E02D0994DA
:043A1000F894FFCF58
:103A14000000010003000200052907E4072C07B990
:103A2400078E0701089A013F2039670347030E03F5
:063A3400B302CC02EC021B
:00000001FF
